:10000000BDEF00F0000E956E966E956A8C680468E0
:10001000056895928C9295908C90076A066AE5EF38
:1000200000F02EC030F02F6A2F5007080EE330BECC
:1000300002D08D9401D08D84969496908D90969058
:100040008D80D89030362F2AEFD71200956A8C6AAF
:1000500004B802D08C9801D08C88959804BC02D04A
:100060008C9C01D08C8C959C04B402D08C9401D0D3
:100070008C84959495928C824CEF00F02AC02EF0DF
:10008000D0DF2BC02EF0CDDF2CC02EF0CADF2DC06C
:100090002EF0C7DF0498DAD7959A8C8A959A8C9AB5
:1000A00095928C9265EF00F023C026F022C027F0D5
:1000B00025C028F024C029F026C02AF027C02BF044
:1000C00028C02CF029C02DF0D9D71200EA6A230EDF
:1000D000E96EEF500DE0060E016E006A002EFED7AD
:1000E000012EFBD77B0E006E002EFED7EF2EF3D72E
:1000F0001200216A206A1F6A1F500F0820E3D8905F
:100100002034226E2134236E010E2224206E000E34
:100110002320216E236A226A21C025F020C024F00A
:10012000C3DF1EC022F0222A2206D8B403D02368DF
:10013000CDDFFAD71DC023F0C9DF1F2ADDD71F6A24
:100140001F500F0818E3D89020362136236A226A00
:1001500021C025F020C024F0A7DF1EC022F0222AF3
:100160002206D8B403D02368B1DFFAD71DC023F02C
:10017000ADDF1F2AE5D7E9EF00F0F86AD09EB88618
:10018000080EAF6E020EB06EA60EAC6E900EAB6E89
:10019000086A096A0A6A0B6A196A1B681A681C905D
:1001A0001C92C150C00B0F09C16E070EB46E0C68D3
:1001B0000D680E680F68106811681268136814687B
:1001C00015681668176818681DD71E6A3C0E1D6EE4
:0601D00090D7FBD70300ED
:020000040030CA
:0E00000027CC3E1E0087A1000FC00FE00F406E
:00000001FF
;PIC18F4550
;CRC=9747  CREATED="16-Mar-22 20:39"
