:1000000068EF00F0000E956E966E956A8C68046835
:10001000056895928C9295908C90076A066A90EF8D
:1000200000F022C024F0236A235007080EE324BE08
:1000300002D08D9401D08D84969496908D90969058
:100040008D80D8902436232AEFD71200956A8C6AC7
:1000500004B802D08C9801D08C88959804BC02D04A
:100060008C9C01D08C8C959C04B402D08C9401D0D3
:100070008C84959495928C824CEF00F01EC022F0F7
:10008000D0DF1FC022F0CDDF20C022F0CADF21C0A8
:1000900022F0C7DF0498DAD7959A8C8A959A8C9AC1
:1000A00095928C9297EF00F0EA6A1E0EE96EEF507F
:1000B0000DE0060E016E006A002EFED7012EFBD762
:1000C0007B0E006E002EFED7EF2EF3D79AEF00F0D6
:1000D000F86AD09EB886080EAF6E020EB06EA60EFD
:1000E000AC6E900EAB6E086A096A0A6A0B6A196AEE
:1000F0001B681A681C901C92C150C00B0F09C16E7E
:10010000070EB46E0C680D680E680F6810681168F1
:10011000126813681468156816681768186872D72B
:100120001D6A1E6A1F6A206A1DC021F0A7D7C80E6B
:0A0130001E6EBAD71D1EF5D703009E
:020000040030CA
:0E00000027CC3E1E0087A1000FC00FE00F406E
:00000001FF
;PIC18F4550
;CRC=3C92  CREATED="16-Mar-22 20:13"
