:040000003FEF01F0DD
:08000800046ED8CF05F0E0CF33
:1000100006F00001E9CF0CF0EACF07F0E1CF08F0DD
:10002000E2CF09F0D9CF0AF0DACF0BF0F3CF12F01C
:10003000F4CF13F0FACF14F000C00EF001C00FF0AF
:1000400002C010F003C011F09DA02AEF00F09EB096
:1000500060EF00F00EC000F00FC001F010C002F021
:1000600011C003F00CC0E9FF07C0EAFF078E08C00B
:10007000E1FF09C0E2FF0AC0D9FF0BC0DAFF12C0DE
:10008000F3FF13C0F4FF14C0FAFF045006C0E0FFF2
:1000900005C0D8FF1000F2CF0DF0F29EF76AB00F46
:1000A000F66E000EF7220900F5500DBEF28E12001A
:1000B000C0F9A4B0999282F880908883C6A1868EF8
:1000C0000B0ECF6EDC0ECE6E282A9E902AEF00F02B
:1000D000366A365007080EE335BE02D08D9401D043
:1000E0008D84969496908D9096908D80D89035368C
:1000F000362AEFD712002BC02CF02AC02DF02CC0CE
:1001000035F0E6DF2DC035F0E3DF12002B6A2A6AF6
:10011000F2DF2B6A2A6AEFDF2B6A2A6AECDF2B6A8E
:100120002A6AE9DF95968C8695968C9695988C88A8
:1001300095988C98959A8C8A959A8C9A959E8C8E87
:10014000959E8C9E95948C8495948C942B682A68AB
:10015000D2DF2B682A68CFDF959C8C8C959C8C9C79
:10016000BEEF00F0FF0E926E3C0E936EF10E946E99
:10017000000E966E956E956A8C6AC8D7F19E176AC6
:10018000166AC050C00B0209C06EC08EC280C1503A
:10019000C00B0C09C16E95908C9065EF01F0016A5F
:1001A000026A006A036A365002E1355018E0100E08
:1001B000376ED89033363436003603363650035C0B
:1001C00002E13550005C07E33550005ED8A003061D
:1001D0003650035ED88001360236372EEAD7120039
:1001E00034C035F075DF33C035F072DF32C035F022
:1001F0006FDF31C035F06CDF959C8C9C959C8C8CAE
:100200003DEF01F02C682D682E682F68306A036A74
:1002100030502C0FE96E000E0320EA6E2BC034F034
:100220002AC033F0366A0A0E356EB9DF00C033F0EB
:1002300003C034F003C003F00050F2CF35F0F29E5B
:100240002ADF35BEF28EEF6E2BC034F02AC033F0B9
:10025000366A0A0E356EA3DF02C02BF001C02AF009
:10026000302A2A502B10D3E12FC031F02EC032F0AB
:100270002DC033F02CC034F0B3D778EF01F0F86A1A
:10028000D09E078EB886080EAF6E020EB06EA60E18
:10029000AC6E900EAB6E186A196A1A6A1B6A246AF1
:1002A0002668256827902792286A296AC150C00BC2
:1002B0000F09C16E070EB46E1C681D681E681F68AA
:1002C00020682168226823684DD7B50ECD6E0B0ECD
:1002D000CF6EDC0ECE6E9D80C00EF2122850090843
:1002E00003E20A0E285E292A2B6A29C02AF08AD73F
:0402F000F5D703003B
:020000040030CA
:0E00000027CC3E1E0087A1000FC00FE00F406E
:00000001FF
;PIC18F4550
;CRC=1FE6  CREATED="21-Feb-22 10:22"
