:1000000053EF02F0F76A140FF66E000EF7220900A4
:10001000F55012000001020503040102200307034A
:100020000606020503030606020303040503072070
:100030002007070606030304000606050304010162
:10004000072020070006020503040006020303043C
:10005000202020202020F76A660FF66E000EF7227F
:100060000900F550120000010207200707200705CC
:1000700003040102202007202007200307030101B9
:1000800002030307072020050303000102200304E5
:10009000202002050304072007050307202007206E
:1000A00020070701010703032020070503040001BF
:1000B00002070303072007050304010107202004AA
:1000C0002000202007200001020503040020020573
:1000D0000304000102050307202007050304202074
:1000E00020202020202020202020F76AFA0FF66E02
:1000F000000EF7220900F5501200070F1F1F1F1FE7
:100100001F1F1F1F1F00000000001C1E1F1F1F1F9E
:100110001F1F00000000001F1F1F1F1F1F1F1F1F8A
:100120001E1C1F1F1F1F1F1F0F071F1F1F00000068
:100130001F1F1F1F1F1F1F1F1F1FF76A4A0FF66E6B
:10014000010EF7220900F550120080C094D45658D1
:100150004C2053504B540000000E956E966E956ADD
:100160008C680468056895928C9295908C90076ACB
:10017000066A7CEF02F030C032F0316A3150070875
:100180000EE332BE02D08D9401D08D849694969069
:100190008D9096908D80D8903236312AEFD712000C
:1001A000956A8C6A04B802D08C9801D08C88959896
:1001B00004BC02D08C9C01D08C8C959C04B402D0E1
:1001C0008C9401D08C84959495928C82F6EF00F0FB
:1001D0000FC030F0D0DF0EC030F0CDDF0DC030F0FA
:1001E000CADF0CC030F0C7DF0494DAD795968C864E
:1001F00095968C9695928C9205EF01F02E500D6E8F
:100200000D1E2FC00CF00C1EE3D71200218021C060
:100210002EF02DC02FF0F2DF219021C02EF02DC046
:100220002FF0ECDF120021942CC02DF0EFDF200E18
:10023000006E002EFED700D000001200EA6A240EE5
:10024000E96EEF500DE0060E016E006A002EFED73B
:10025000012EFBD77B0E006E002EFED7EF2EF3D7BC
:100260001200218429C02DF0D1DF200E006E002E57
:10027000FED700D00000120021962192236A3C0E86
:100280002C6ED1DF050E246ED9DF3C0E2C6ECBDF39
:10029000050E246ED3DF0C0E2C6EC5DF400E2C6EC7
:1002A000C2DF236A23503F080DE3036A2350F2CFD5
:1002B00024F0F29E1ADF24BEF28E246E296ED1DF66
:1002C000232AF0D7010E2C6EAEDF020E246EB6DFAD
:1002D0007DEF02F0036A2950F2CF2BF0F29E2DDF62
:1002E0002BBEF28E2A242B6E2C6E9DDF120009008D
:1002F000F5520CE0F6CF23F0F7CF24F0F5CF29F03C
:10030000B0DF23C0F6FF24C0F7FFF1D786EF02F07D
:100310002850016A275C03E227C000F00CD0006A75
:10032000080E296E273600362850005CD8B0006EC3
:100330000136292EF7D71200015023C027F0640E92
:10034000286EE6DF00C023F00150300E07E124A242
:100350000CD024B60AD024B8200E03D024962498BA
:100360002480012601C029F07CDF23C027F00A0E7B
:10037000286ECEDF00C023F00150300E06E124B617
:1003800008D024A006D024B8200E012601C029F0F0
:1003900068DF300E232623C029F063DF98EF02F0D8
:1003A000006A016A2850D89029B000260032013234
:1003B00029B200260032013229B40026003201326F
:1003C00029B600260032013229B800260032013257
:1003D00029BA00260032013229BC0026003201323F
:1003E00029BE0026003201320EEF02F025C029F0AE
:1003F00026C02AF06FDF276A2750050824E327501C
:10040000030807E1010E2524286E296E26C02AF074
:1004100061DF24C028F0060E296EC2D70150296A78
:10042000286E036A27502824016E295003220150A8
:10043000F2CF28F0F29EE6DD28BEF28E286E296EFD
:1004400010DF272AD9D71200266A26500B082AE384
:1004500026C027F0030E286E5BDF00520CE126C099
:1004600027F0030E286E54DF01C027F001C029F0E9
:1004700025C02AF02FDF24500C0DF350286A276E78
:10048000036A26502724016E285003220150F2CF20
:1004900027F0F29EE0DD27BEF28E276E296EE1DEA8
:1004A000262AD3D71200F86AD09EB886080EAF6EFF
:1004B000020EB06EA60EAC6E900EAB6E0C6A0D6A9C
:1004C0000E6A0F6A1D6A1F681E6820902092226AB9
:1004D000C150C00B0F09C16E070EB46E10681168D1
:1004E0001268136814681568166817681868196820
:1004F0001A681B681C6830D6BFD6296A090E2A6E96
:10050000E9DE4E0EF66E010EF76EF1D6020E296E82
:10051000120E2A6EDFDEF40E296EA3DE030E296EA4
:100520000A0E2A6ED7DE22C023F01B0E246E04D7DB
:10053000200E296E96DE22C027F00A0E286EE8DE15
:1005400001C027F00A0E286EE3DE00C023F000C0D1
:1005500024F0010E256E0A0E266E48DF22C027F019
:100560000A0E286ED5DE00C023F000C024F0010E74
:10057000256E0D0E266E3ADF22C027F00A0E286E79
:10058000C7DE01C027F00A0E286EC2DE00C023F0CD
:1005900000C024F0256A58DF22C027F00A0E286E1A
:1005A000B7DE00C023F000C024F0040E256E4CDF3F
:1005B000222A22C027F0640E286EAADE00C022F094
:0A05C000C80E246E3BDEAAD703002C
:020000040030CA
:0E00000027CC3E1E0087A1000FC00FE00F406E
:00000001FF
;PIC18F4550
;CRC=3670  CREATED="09-Mar-22 07:05"
