:10000000EBEF02F0F76A140FF66E000EF72209000C
:10001000F5501200C0F9A4B0999282F880908883BC
:10002000C6A1868E2E004E4F204448543131000028
:10003000444F4320534149204455204C49455520C5
:100040004448543131004E4F20445331384232300D
:100050000000546A545007080EE353BE02D08D943A
:1000600001D08D84969496908D9096908D80D890A6
:100070005336542AEFD712004FC050F04EC051F003
:1000800050C053F0E6DF51C053F0E3DF12004F6A77
:100090004E6AF2DF4F6A4E6AEFDF95968C86959630
:1000A0008C9695988C8895988C98959A8C8A959A28
:1000B0008C9A959E8C8E959E8C9E95948C8495940E
:1000C0008C944F684E68D8DF4F684E68D5DF959C9A
:1000D0008C8C959C8C9C79EF00F0FF0E926E3C0E00
:1000E000936EF10E946E000E966E956E956A8C6A04
:1000F000CED7F19E056A046AC050C00B0209C06EDB
:10010000C08EC280C150C00B0C09C16E95908C90FE
:1001100039EF03F0016A026A006A036A595002E18A
:10012000585018E0100E5A6ED89056365736003692
:1001300003365950035C02E15850005C07E3585005
:10014000005ED8A003065950035ED88001360236FF
:100150005A2EEAD71200036A5050070FE96E000EBC
:100160000320EA6E4FC057F04EC056F0596A0A0E8F
:10017000586ED0DF00C054F003C055F003C003F048
:100180000050F2CF56F0F29E3DDF56BEF28EEF6E7B
:10019000010E505C036A070FE96E000E0320EA6E41
:1001A0004FC057F04EC056F0596A0A0E586EB2DF73
:1001B00002C055F001C054F002C057F001C056F023
:1001C000596A0A0E586EA6DF00C054F003C055F0FD
:1001D00003C003F00050F2CF56F0F29E13DF56BE7C
:1001E000F28EEF6E020E505C036A070FE96E000E8E
:1001F0000320EA6E4FC057F04EC056F0596A640EA5
:10020000586E88DF02C055F001C054F002C057F0AC
:1002100001C056F0596A0A0E586E7CDF00C054F0D7
:1002200003C055F003C003F00050F2CF56F0F29E29
:10023000E9DE56BEF28EEF6E030E505C036A070FC6
:10024000E96E000E0320EA6E4FC057F04EC056F024
:10025000030E596EE80E586E5DDF02C055F001C006
:1002600054F002C057F001C056F0596A0A0E586E99
:1002700051DF00C054F003C055F003C003F000503C
:10028000F2CF56F0F29EBEDE56BEF28EEF6E512CCD
:100290003CD0030E505C036A070FE96E000E03208A
:1002A000EA6EEF50C00831E1030E505C036A070F9D
:1002B000E96E000E0320EA6EEF68020E505C036ADE
:1002C000070FE96E000E0320EA6EEF50C0081DE133
:1002D000020E505C036A070FE96E000E0320EA6EFF
:1002E000EF68010E505C036A070FE96E000E0320F1
:1002F000EA6EEF50C00809E1010E505C036A070F77
:10030000E96E000E0320EA6EEF68A2EF01F00AC06A
:1003100053F09FDE09C053F09CDE08C053F099DE15
:1003200007C053F096DE959C8C9C959C8C8CB9EF05
:1003300001F04BC04FF04AC04EF0030E506E010E5C
:10034000516E09D74DC057F04CC056F0596A0A0E8D
:10035000586EE0DE00C04EF003C04FF003C003F063
:100360000050F2CF50F0F29E4DDE50BEF28E076E7E
:10037000CED712004FC053F06CDE50C053F069DE90
:1003800051C053F066DE52C053F063DE95988C88FE
:1003900095988C981200030E515E09E3EA6A510E9B
:1003A000E96EEF5004E001D000D0EF2EFDD712002F
:1003B000938681B616D0062A020E506EF90E516E43
:1003C000EADF502EFBD74F5208E14E50065C05E3A2
:1003D000066A010E016E07D003D0000E016E03D035
:1003E00002D0000E016E46EF02F004C050F005C0CE
:1003F00051F051C053F02DDE50C053F02ADE9596D7
:100400008C8695968C961200EA6A510EE96EEF5032
:100410000DE0060E016E006A002EFED7012EFBD7FE
:100420007B0E006E002EFED7EF2EF3D71200058054
:10043000DCDF4FC050F0502A5006D8B403D05168CA
:10044000E3DFFAD74EC051F0DFDF0590CEDF5BEF80
:1004500002F0938A81BA0CD02E8649C04EF04E1E0F
:100460004F6A506A49C051F04EC052F083DF23D02A
:10047000938881B807D02E964F6A506A516A526AA3
:1004800079DF19D04F6A140E4E6E92D7015213E0E5
:100490002EA60DD02E74491E49C04EF04E1E4F6A36
:1004A000506A49C051F04EC052F064DF04D04F6A28
:1004B000640E4E6EBCD743EF03F0938481B416D024
:1004C000062A020E506EF90E516E65DF502EFBD7D4
:1004D0004F5208E14E50065C05E3066A010E016EBC
:1004E00007D003D0000E016E03D002D0000E016EC3
:1004F00047EF03F0E00E0416D8904734036A2F0F3D
:10050000E96E000E0320EA6EECCF03F0ED52EF50DF
:1005100004120350051269DF472A030E4716ADEF98
:1005200002F0E00E0416D8904734036A2F0FE96EEC
:10053000000E0320EA6EECCF03F0ED52EF500412F0
:100540000350051252DF4706030E4716ADEF02F0C7
:100550002EA402D0CFD701D0E4D7E9EF02F0E00E0D
:100560000416D8904734036A370FE96E000E032053
:10057000EA6EECCF03F0ED52EF5004120350051277
:1005800034DF472A070E4716E2EF02F0E00E0416AA
:10059000D8904734036A370FE96E000E0320EA6EE5
:1005A000ECCF03F0ED52EF500412035005121DDFA3
:1005B0004706070E4716E2EF02F02EA402D0CFD76F
:1005C00001D0E4D7E9EF02F02EA802D0C1D701D0C4
:1005D000F4D74DEF03F0F86AD09E066A29682E9092
:1005E0002E92476A2E942E962E88496AC150C00BCF
:1005F0000F09C16E070EB46E1CD00C4007FF1680A9
:10060000303315031602219091303010082002205B
:1006100090960000000018002F1D0017001B000F0F
:10062000001D001500170013001B000B000F000D2C
:100630000000000EF86E050EF76EFA0EF66E090059
:10064000F550006E000A13E00900F550016EE8BE97
:1006500005D00F0BEA6E0900F5CFE9FF01BC0900D8
:1006600001AC0900F5CFEEFF004EE9D7F9D7F86AE3
:1006700034D5140E486E2E842E884B6A4A6A4D6A11
:100680004C6A57DEE6D64F6A140E4E6E16D70152EC
:1006900001E02E782EA619D097D748C051F0B4DECD
:1006A0004A2AD8B44B2A4A50C8080EE14B520CE1F2
:1006B0004B6A4A6A4C2AD8B44D2A4C50090804E1C6
:0E06C0004D5202E14D6A4C6A34DEDCD7030075
:020000040030CA
:0E00000007CC3E1E0087A1000FC00FE00F408E
:00000001FF
;PIC18F4550
;CRC=AAA3  CREATED="03-Dec-21 21:00"
