:1000000012EF03F0F76A140FF66E000EF7220900E4
:10001000F5501200C0F9A4B0999282F880908883BC
:10002000C6A1868EF76A340FF66E000EF72209001D
:10003000F55012007FBFDFEFF7FBFDFEFF002E0043
:100040004E4F2044485431310000444F4320534127
:1000500049204455204C49455520444854313100ED
:100060004E4F20445331384232300000396A395003
:1000700007080EE338BE02D08D9401D08D8496948B
:1000800096908D9096908D80D8903836392AEFD7FB
:10009000120034C035F033C036F035C038F0E6DF3A
:1000A00036C038F0E3DF1200346A336AF2DF346AB4
:1000B000336AEFDF95968C8695968C9695988C880A
:1000C00095988C98959A8C8A959A8C9A959E8C8EF8
:1000D000959E8C9E95948C8495948C94346833680A
:1000E000D8DF34683368D5DF959C8C8C959C8C9CCC
:1000F00086EF00F0FF0E926E3C0E936EF10E946E42
:10010000000E966E956E956A8C6ACED7F19E056A42
:10011000046AC050C00B0209C06EC08EC280C150BC
:10012000C00B0C09C16E95908C9050EF03F004C089
:1001300033F005C034F034C038F098DF33C038F005
:1001400095DF95968C8695968C96A9EF00F0048A9B
:10015000EED751EF03F0016A026A006A036A3E506B
:1001600002E13D5018E0100E3F6ED8903B363C3611
:10017000003603363E50035C02E13D50005C07E36D
:100180003D50005ED8A003063E50035ED880013685
:1001900002363F2EEAD71200036A35500B0FE96E84
:1001A000000E0320EA6E34C03CF033C03BF03E6AE0
:1001B0000A0E3D6ED0DF00C039F003C03AF003C034
:1001C00003F00050F2CF3BF0F29E1CDF3BBEF28EFC
:1001D000EF6E010E3524036A0B0FE96E000E03204B
:1001E000EA6E34C03CF033C03BF03E6A0A0E3D6E0E
:1001F000B2DF02C03AF001C039F002C03CF001C0E9
:100200003BF03E6A0A0E3D6EA6DF00C039F003C027
:100210003AF003C003F00050F2CF3BF0F29EF2DE62
:100220003BBEF28EEF6E020E3524036A0B0FE96EB1
:10023000000E0320EA6E34C03CF033C03BF03E6A4F
:10024000640E3D6E88DF02C03AF001C039F002C092
:100250003CF001C03BF03E6A0A0E3D6E7CDF00C000
:1002600039F003C03AF003C003F00050F2CF3BF086
:10027000F29EC8DE3BBEF28EEF6E030E3524036A9B
:100280000B0FE96E000E0320EA6E34C03CF033C061
:100290003BF0030E3E6EE80E3D6E5DDF02C03AF0AD
:1002A00001C039F002C03CF001C03BF03E6A0A0ECA
:1002B0003D6E51DF00C039F003C03AF003C003F0D7
:1002C0000050F2CF3BF0F29E9DDE3BBEF28EEF6E11
:1002D000362C3CD0030E3524036A0B0FE96E000E5A
:1002E0000320EA6EEF50C00831E1030E3524036AA3
:1002F0000B0FE96E000E0320EA6EEF68020E352444
:10030000036A0B0FE96E000E0320EA6EEF50C0087F
:100310001DE1020E3524036A0B0FE96E000E032067
:10032000EA6EEF68010E3524036A0B0FE96E000ECA
:100330000320EA6EEF50C00809E1010E3524036A7C
:100340000B0FE96E000E0320EA6EEF680CEF02F06F
:100350003A50016A395C03E239C000F00CD0006AFF
:10036000080E3B6E393600363A50005CD8B0006E4D
:1003700001363B2EF7D71200036A34500B0FE96E9B
:10038000000E0320EA6E33C039F00A0E3A6EE0DF49
:10039000036A0050F2CF38F0F29E34DE38BEF28E9F
:1003A000EF6E010E3424036A0B0FE96E000E03207A
:1003B000EA6E33C039F00A0E3A6ECADF01C039F076
:1003C0000A0E3A6EC5DF036A0050F2CF38F0F29E93
:1003D00019DE38BEF28EEF6E352C14D0010E3424A7
:1003E000036A0B0FE96E000E0320EA6EEF50C0089F
:1003F00009E1010E3424036A0B0FE96E000E03209D
:10040000EA6EEF6813EF02F030C034F02FC033F023
:10041000356A010E366EC0D632C033F0050E346E2A
:10042000010E356EA9D71200030E365E09E3EA6AA3
:10043000360EE96EEF5004E001D000D0EF2EFDD76C
:100440001200938681B616D0062A020E356EF90E7A
:10045000366EEADF352EFBD7345208E13350065CA6
:1004600005E3066A010E016E07D003D0000E016E8F
:1004700003D002D0000E016E42EF02F0346A1E0E6D
:10048000336EDFD701521DE02F5202E1305219E0E6
:10049000140E2F5E000E305A320630C002F02FC00C
:1004A00001F00232013202320132023201C0BEFFDB
:1004B00002320230300B006EBD50CF0B0010BD6E0B
:1004C000A3DF63EF03F0938A81BA16D0062A020EE7
:1004D000356EF90E366EA8DF352EFBD7345208E1A3
:1004E0003350065C05E3066A010E016E07D003D0A7
:1004F000000E016E03D002D0000E016E84EF02F0F8
:10050000346A1E0E336EDFD7015220E030500308EC
:100510001DE303E12F50E70819E3140E2F26000E08
:10052000302230C002F02FC001F00232013202321C
:100530000132023201C0BEFF02320230300B006EC7
:10054000BD50CF0B0010BD6E322A5EDF64EF03F0AA
:10055000938881B817D0306A2F6A326A55DF30C06D
:1005600002F02FC001F002320132023201320232B7
:1005700001C0BEFF02320230300B006EBD50CF0B07
:100580000010BD6E65EF03F0036A3550F2CF37F00F
:10059000F29E48DD37BEF28E016E376E371E37C0D1
:1005A00038F064DD36C037F0371E37C038F05EDD16
:1005B000959A8C8A959A8C9A1200EA6A340EE96EA2
:1005C000EF500DE0060E016E006A002EFED7012EE0
:1005D000FBD77B0E006E002EFED7EF2EF3D70DEF6C
:1005E00003F0080E356E3668CFDF0EEF03F0336A86
:1005F000336A3350070814E3036A33500B0FE96E74
:10060000000E0320EA6EEFCF34F033C035F034C073
:1006100036F0BADF010E346ED0D7E3D7332AE9D7EC
:100620006CEF03F0F86AD09E066A29682E902E922D
:100630002E942E96C150C00B0F09C16E070EB46EDA
:100640000FD00C4007FF168030331503160221909F
:100650009130301008200220909600000000000029
:10066000000EF86E060EF76E420EF66E0900F5509B
:10067000006E000A13E00900F550016EE8BE05D0D7
:100680000F0BEA6E0900F5CFE9FF01BC090001ACD0
:100690000900F5CFEEFF004EE9D7F9D7F86A2AD561
:1006A00056D594948B940C0EBD6EB76AB66A000E44
:1006B0000609CA6EF90ECB6E306A2F6A326AA4DE62
:1006C000BF0E0F6EDBD61CD743D7316A31BE03D0C5
:1006D0003150070803E38BD7312AF8D7F3D703004B
:020000040030CA
:0E00000007CC3E1E0087A1000FC00FE00F408E
:00000001FF
;PIC18F4550
;CRC=E46B  CREATED="05-Dec-21 09:51"
