:100000001AEF01F02E004E4F2044485431310000C9
:10001000444F4320534149204455204C49455520E5
:100020004448543131004E4F20445331384232302D
:1000300000004B6A4B5007080EE34ABE02D08D9475
:1000400001D08D84969496908D9096908D80D890C6
:100050004A364B2AEFD7120030C031F02FC032F0B1
:1000600031C04AF0E6DF32C04AF0E3DF1200306A06
:100070002F6AF2DF306A2F6AEFDF95968C869596AD
:100080008C9695988C8895988C98959A8C8A959A48
:100090008C9A959E8C8E959E8C9E95948C8495942E
:1000A0008C9430682F68D8DF30682F68D5DF959C36
:1000B0008C8C959C8C9C69EF00F0FF0E926E3C0E30
:1000C000936EF10E946E000E966E956E956A8C6A24
:1000D000CED7F19E056A046AC050C00B0209C06EFB
:1000E000C08EC280C150C00B0C09C16E95908C901F
:1000F00056EF01F046C04AF09CDF47C04AF099DF56
:1001000048C04AF096DF49C04AF093DF95988C8842
:1001100095988C989DEF00F03FC042F03EC043F0B0
:1001200041C044F040C045F042C046F043C047F0F3
:1001300044C048F045C049F0DDD7B0EF00F038C00A
:100140003AF039C03BF037C03DF036C03CF03BC020
:100150003FF03AC03EF03DC041F03CC040F0DCD73B
:100160001200EA6A370EE96EEF500DE0060E016EDE
:10017000006A002EFED7012EFBD77B0E006E002EEC
:10018000FED7EF2EF3D71200356A346A336A326A2B
:10019000316A31501F082CE3D8903234376E333433
:1001A000386E3434396E35343A6E010E3724326E7F
:1001B000000E3820336E000E3920346E000E3A20C7
:1001C000356E35C039F034C038F033C037F032C046
:1001D00036F0B5DF30C036F0362A3606D8B403D054
:1001E0003768BFDFFAD72FC037F0BBDF312AD1D74E
:1001F000316A31501F081CE3D8903236333634361A
:10020000353635C039F034C038F033C037F032C03D
:1002100036F095DF30C036F0362A3606D8B403D033
:1002200037689FDFFAD72FC037F09BDF312AE1D73D
:100230005AEF01F0F86AD09E066A29682E902E9235
:10024000C150C00B0F09C16E070EB46E0FD00C4029
:1002500007FF1680303315031602219091303010BD
:10026000082002209096000000000000000EF86EAA
:10027000020EF76E4E0EF66E0900F550006E000A83
:1002800013E00900F550016EE8BE05D00F0BEA6ED1
:100290000900F5CFE9FF01BC090001AC0900F5CF69
:1002A000EEFF004EE9D7F9D7F86A07D7306A320E69
:0802B0002F6E6AD7FBD7030093
:020000040030CA
:0E00000007CC3E1E0087A1000FC00FE00F408E
:00000001FF
;PIC18F4550
;CRC=8C7E  CREATED="22-Nov-21 21:14"
