:1000000042EF02F0F76A140FF66E000EF7220900B5
:10001000F5501200C0F9A4B0999282F880908883BC
:10002000C6A1868E2E004E4F204448543131000028
:10003000444F4320534149204455204C49455520C5
:100040004448543131004E4F20445331384232300D
:100050000000476A475007080EE346BE02D08D9461
:1000600001D08D84969496908D9096908D80D890A6
:100070004636472AEFD7120033C034F032C035F08D
:1000800034C046F0E6DF35C046F0E3DF1200336AE5
:10009000326AF2DF336A326AEFDF95968C86959684
:1000A0008C9695988C8895988C98959A8C8A959A28
:1000B0008C9A959E8C8E959E8C9E95948C8495940E
:1000C0008C9433683268D8DF33683268D5DF959C0A
:1000D0008C8C959C8C9C79EF00F0FF0E926E3C0E00
:1000E000936EF10E946E000E966E956E956A8C6A04
:1000F000CED7F19E056A046AC050C00B0209C06EDB
:10010000C08EC280C150C00B0C09C16E95908C90FE
:100110007EEF02F0030E355E09E3EA6A350EE96E02
:10012000EF5004E001D000D0EF2EFDD712009386EF
:1001300081B616D0062A020E346EF90E356EEADF4D
:10014000342EFBD7335208E13250065C05E3066AD1
:10015000010E016E07D003D0000E016E03D002D055
:10016000000E016E49EF01F03950016A385C03E27C
:1001700038C000F00CD0006A080E3A6E38360036EF
:100180003950005CD8B0006E01363A2EF7D7120015
:10019000036A3350070FE96E000E0320EA6E32C087
:1001A00038F00A0E396EE0DF036A0050F2CF37F004
:1001B000F29E28DF37BEF28EEF6E010E335C036ACB
:1001C000070FE96E000E0320EA6E32C038F00A0E07
:1001D000396ECADF01C038F00A0E396EC5DF036A16
:1001E0000050F2CF37F0F29E0DDF37BEF28EEF6E89
:1001F000342C14D0010E335C036A070FE96E000E35
:100200000320EA6EEF50C00809E1010E335C036A77
:10021000070FE96E000E0320EA6EEF6812000AC0B5
:1002200046F017DF09C046F014DF08C046F011DFC2
:1002300007C046F00EDF959C8C9C959C8C8C120020
:1002400031C032F0010E336E346EA2DFE8DF1200EF
:10025000938481B416D0062A020E346EF90E356EE0
:1002600059DF342EFBD7335208E13250065C05E3E8
:10027000066A010E016E07D003D0000E016E03D096
:1002800002D0000E016E54EF01F0336AFA0E326EA6
:100290004ED7012C05D03150620802E3312AD0DF5D
:1002A000336AFA0E326ED4D7012C04D0315202E0F8
:1002B0003106C6DF86EF02F02FC032F0030E336E38
:1002C000010E346E65DF31C032F0010E336E346ED4
:1002D0005FDFA5DFA8EF01F004C034F005C035F002
:1002E00035C046F0B6DE34C046F0B3DE95968C8657
:1002F00095968C961200EA6A350EE96EEF500DE085
:10030000060E016E006A002EFED7012EFBD77B0E73
:10031000006E002EFED7EF2EF3D712000580DCDF33
:1003200033C034F0342A3406D8B403D03568E3DF60
:10033000FAD732C035F0DFDF0590CEDFB2EF01F043
:10034000D6502F6E2F50305C0DE02FC030F0B4D758
:1003500031502F5C07E3D76AD66A010E336E2C0E3C
:10036000326EDCD787EF02F0938A81BA16D0062A64
:10037000020E346EF90E356ECDDE342EFBD73352BD
:1003800008E13250065C05E3066A010E016E07D0F3
:1003900003D0000E016E03D002D0000E016E0CEFF0
:1003A00002F042C046F055DE43C046F052DE44C083
:1003B00046F04FDE45C046F04CDE95988C88959807
:1003C0008C98F4EF01F03BC03EF03AC03FF03DC0E6
:1003D00040F03CC041F03EC042F03FC043F040C05E
:1003E00044F041C045F0DDD707EF02F034C036F0ED
:1003F00035C037F033C039F032C038F037C03BF089
:1004000036C03AF039C03DF038C03CF0DCD71200BD
:10041000336A640E326EA8D7015207E0A80ED56E7B
:10042000356A346A33683268E1DF88EF02F0938816
:1004300081B816D0062A020E346EF90E356E6ADEC9
:10044000342EFBD7335208E13250065C05E3066ACE
:10045000010E016E07D003D0000E016E03D002D052
:10046000000E016E38EF02F0336A640E326EDFD791
:10047000015206E0D56A356A346A336A326AB6DFF9
:1004800089EF02F0F86AD09E066A29682E902E92B3
:10049000C150C00B0F09C16E070EB46E0FD00C40D7
:1004A00007FF16803033150316022190913030106B
:1004B000082002209096000000000000000EF86E58
:1004C000040EF76E9E0EF66E0900F550006E000ADF
:1004D00013E00900F550016EE8BE05D00F0BEA6E7F
:1004E0000900F5CFE9FF01BC090001AC0900F5CF17
:1004F000EEFF004EE9D7F9D7F86AEFD5D56AD76A8B
:10050000D66A010E306E320E316EBFD619D780D743
:06051000ABD7FCD703008D
:020000040030CA
:0E00000007CC3E1E0087A1000FC00FE00F408E
:00000001FF
;PIC18F4550
;CRC=6E5D  CREATED="25-Nov-21 19:53"
