:1000000077EF01F0F76A140FF66E000EF722090081
:10001000F5501200C0F9A4B0999282F880908883BC
:10002000C6A1868EF76A340FF66E000EF72209001D
:10003000F55012003F7FBFFFF76A480FF66E000EC3
:10004000F7220900F55012007FBFDFEFF7FBFDFE3E
:10005000FF002E004E4F2044485431310000444FE1
:100060004320534149204455204C4945552044489C
:10007000543131004E4F2044533138423230000069
:10008000376A375007080EE336BE02D08D9401D090
:100090008D84969496908D9096908D80D8903636DB
:1000A000372AEFD7120032C033F031C034F033C0FA
:1000B00036F0E6DF34C036F0E3DF1200326A316A30
:1000C000F2DF326A316AEFDF95968C8695968C96D0
:1000D00095988C8895988C98959A8C8A959A8C9AF4
:1000E000959E8C8E959E8C9E95948C8495948C94E4
:1000F00032683168D8DF32683168D5DF959C8C8CE6
:10010000959C8C9C90EF00F0FF0E926E3C0E936ECF
:10011000F10E946E000E966E956E956A8C6ACED72F
:10012000F19E056A046AC050C00B0209C06EC08E01
:10013000C280C150C00B0C09C16E95908C90B3EF7A
:1001400001F0036A3350F2CF35F0F29E75DF35BE11
:10015000F28E016E356E351E35C036F091DF34C03B
:1001600035F0351E35C036F08BDF959A8C8A959A1E
:100170008C9A1200EA6A330EE96EEF500DE0060E1B
:10018000016E006A002EFED7012EFBD77B0E006E9B
:10019000002EFED7EF2EF3D71200080E336E346810
:1001A000D0DFEAEF00F0316A316A3150070814E31A
:1001B000036A31500B0FE96E000E0320EA6EEFCF99
:1001C00032F031C033F032C034F0BBDF010E336E99
:1001D000D1DFE3D7312AE9D7B6EF01F0346834C074
:1001E00033F0356A3550030826E3036A3550F2CF01
:1001F00036F0F29E17DF36BEF28E936A8A6E9384D3
:1002000081B404D0030E346E16D013D0938681B619
:1002100004D0020E346E0FD00CD0938881B804D075
:10022000010E346E08D005D0938A81BA02D0346AA8
:1002300002D0352AD7D7343C01D005D03550040D33
:10024000F3503424336E33C001F028EF01F0C6D7E9
:1002500001C032F0323C01D010D0062A010E336EBC
:1002600089DF3150065C05E3066A32C001F007D031
:1002700003D0FF0E016E03D002D0FF0E016E44EFDB
:1002800001F0640E316EE3D701C02FF02F3C01D096
:100290002CD0070E306E30BE1FD0305000081CE24C
:1002A000036A30500B0F016E000E032201C031F0C3
:1002B00003C032F0010E305C036A0B0FE96E000ED2
:1002C0000320EA6EEFCF33F032C0EAFF01C0E9FF4E
:1002D00033C0EFFF3006DFD7036A2F50F2CF31F083
:1002E000F29E90DE31BEF28E0B6EB7EF01F0F86A2F
:1002F000D09E066A29682E902E92C150C00B0F091D
:10030000C16E070EB46E0FD00C4007FF168030335D
:10031000150316022190913030100820022090968B
:10032000000000000000000EF86E030EF76E080ECD
:10033000F66E0900F550006E000A13E00900F55052
:10034000016EE8BE05D00F0BEA6E0900F5CFE9FF9C
:1003500001BC090001AC0900F5CFEEFF004EE9D762
:10036000F9D7F86AD1D67F0E0B6E1DD78AD7FDD785
:02037000030088
:020000040030CA
:0E00000007CC3E1E0087A1000FC00FE00F408E
:00000001FF
;PIC18F4550
;CRC=8135  CREATED="27-Nov-21 20:11"
