:100000000FEF01F02E004E4F2044485431310000D4
:10001000444F4320534149204455204C49455520E5
:100020004448543131004E4F20445331384232302D
:100030000000546A545007080EE353BE02D08D945A
:1000400001D08D84969496908D9096908D80D890C6
:100050005336542AEFD7120030C031F02FC032F09F
:1000600031C053F0E6DF32C053F0E3DF1200306AF4
:100070002F6AF2DF306A2F6AEFDF95968C869596AD
:100080008C9695988C8895988C98959A8C8A959A48
:100090008C9A959E8C8E959E8C9E95948C8495942E
:1000A0008C9430682F68D8DF30682F68D5DF959C36
:1000B0008C8C959C8C9C69EF00F0FF0E926E3C0E30
:1000C000936EF10E946E000E966E956E956A8C6A24
:1000D000CED7F19E056A046AC050C00B0209C06EFB
:1000E000C08EC280C150C00B0C09C16E95908C901F
:1000F0004BEF01F04FC053F09CDF50C053F099DF3D
:1001000051C053F096DF52C053F093DF95988C881E
:1001100095988C989DEF00F048C04BF047C04CF08C
:100120004AC04DF049C04EF04BC04FF04CC050F0AB
:100130004DC051F04EC052F0DDD7B0EF00F041C0DD
:1001400043F042C044F040C046F03FC045F044C0D8
:1001500048F043C047F046C04AF045C049F0DCD7FC
:10016000EBEF00F0EA6A400EE96EEF500DE0060E8C
:10017000016E006A002EFED7012EFBD77B0E006EAB
:10018000002EFED7EF2EF3D712003A6A396A386A8A
:10019000376A800E3E6E3D6A3C6A3B6A200E326EC4
:1001A00032523BE0316A3250315C28E237503B102A
:1001B000336E38503C10346E39503D10356E3A5025
:1001C0003E10366E36C042F035C041F034C040F0CB
:1001D00033C03FF0B4D730C03FF03F2A3F06D8B419
:1001E00003D04068BFDFFAD72FC040F0BBDFD89004
:1001F0003E323D323C323B32312AD5D736C03AF01E
:1002000035C039F034C038F033C037F0800E3E6E60
:100210003D6A3C6A3B6A3206C3D74FEF01F0F86A89
:10022000D09E066A29682E902E92C150C00B0F09ED
:10023000C16E070EB46E0FD00C4007FF168030332E
:10024000150316022190913030100820022090965C
:10025000000000000000000EF86E020EF76E380E6F
:10026000F66E0900F550006E000A13E00900F55023
:10027000016EE8BE05D00F0BEA6E0900F5CFE9FF6D
:1002800001BC090001AC0900F5CFEEFF004EE9D733
:10029000F9D7F86A12D7306A0A0E2F6E76D7FBD7D5
:0202A000030059
:020000040030CA
:0E00000007CC3E1E0087A1000FC00FE00F408E
:00000001FF
;PIC18F4550
;CRC=4372  CREATED="22-Nov-21 22:24"
