:1000000064EF01F0F76A140FF66E000EF722090094
:10001000F5501200C0F9A4B0999282F880908883BC
:10002000C6A1868E2E004E4F204448543131000028
:10003000444F4320534149204455204C49455520C5
:100040004448543131004E4F20445331384232300D
:100050000000356A355007080EE334BE02D08D9497
:1000600001D08D84969496908D9096908D80D890A6
:100070003436352AEFD7120031C032F030C033F0B9
:1000800032C034F0E6DF33C034F0E3DF1200316A0F
:10009000306AF2DF316A306AEFDF95968C8695968A
:1000A0008C9695988C8895988C98959A8C8A959A28
:1000B0008C9A959E8C8E959E8C9E95948C8495940E
:1000C0008C9431683068D8DF31683068D5DF959C12
:1000D0008C8C959C8C9C79EF00F0FF0E926E3C0E00
:1000E000936EF10E946E000E966E956E956A8C6A04
:1000F000CED7F19E056A046AC050C00B0209C06EDB
:10010000C08EC280C150C00B0C09C16E95908C90FE
:10011000A0EF01F03750016A365C03E236C000F010
:100120000CD0006A080E386E363600363750005C48
:10013000D8B0006E0136382EF7D71200036A31505E
:10014000070FE96E000E0320EA6E30C036F00A0E8B
:10015000376EE0DF036A0050F2CF35F0F29E52DFD7
:1001600035BEF28EEF6E010E315C036A070FE96E49
:10017000000E0320EA6E30C036F00A0E376ECADF7A
:1001800001C036F00A0E376EC5DF036A0050F2CFA9
:1001900035F0F29E37DF35BEF28EEF6E322C14D082
:1001A000010E315C036A070FE96E000E0320EA6E50
:1001B000EF50C00809E1010E315C036A070FE96ED8
:1001C000000E0320EA6EEF68FFEF00F00AC034F083
:1001D00040DF09C034F03DDF08C034F03ADF07C02B
:1001E00034F037DF959C8C9C959C8C8C00EF01F053
:1001F0002FC030F0030E316E010E326E9FD7E6D75E
:100200001200030E335E09E3EA6A330EE96EEF5023
:1002100004E001D000D0EF2EFDD71200938A81BAFE
:1002200016D0062A020E326EF90E336EEADF322E37
:10023000FBD7315208E13050065C05E3066A010E37
:10024000016E07D003D0000E016E03D002D0000E65
:10025000016E4CEF01F0938681B616D0062A020E8D
:10026000326EF90E336ECDDF322EFBD7315208E1FC
:100270003050065C05E3066A010E016E07D003D01C
:10028000000E016E03D002D0000E016E59EF01F096
:10029000316AFA0E306EC2D7012C07D02F505908A0
:1002A00002E32F2A01D02F6AA3DF316AFA0E306EE3
:1002B000D2D7012C07D02F5202E02F0602D0630EB6
:1002C0002F6E96DFA4EF01F0F86AD09E066A2968C7
:1002D0002E902E92C150C00B0F09C16E070EB46E46
:1002E0000FD00C4007FF1680303315031602219003
:1002F000913030100820022090960000000000008D
:10030000000EF86E020EF76EE20EF66E0900F55062
:10031000006E000A13E00900F550016EE8BE05D03A
:100320000F0BEA6E0900F5CFE9FF01BC090001AC33
:100330000900F5CFEEFF004EE9D7F9D7F86ACDD620
:0C034000320E2F6E55DFA4D7FED703004D
:020000040030CA
:0E00000007CC3E1E0087A1000FC00FE00F408E
:00000001FF
;PIC18F4550
;CRC=DB02  CREATED="25-Nov-21 17:57"
