:10000000BCEF05F0F76A140FF66E000EF722090038
:10001000F5501200C0F9A4B0999282F880908883BC
:10002000C6A1868EF76A340FF66E000EF72209001D
:10003000F550120080C094D4F76A480FF66E000E97
:10004000F7220900F5501200000102040305010225
:100050002003070306060204030306060203030542
:10006000070307202007070606030305000606040A
:10007000030501010720200700060204030500060E
:1000800002030305F76A940FF66E000EF7220900CB
:10009000F5501200070F1F1F1F1F1F1F1F1F1F00DC
:1000A000000000001C1E1F1F1F1F1F1F000000005C
:1000B000001F1F1F1F1F1F1F1F1F0F071F1F1F1F97
:1000C0001F1F1E1C1F1F1F0000001F1F1F1F1F1FA1
:1000D0001F1F1F1F2E004E4F204448543131000077
:1000E000444F4320534149204455204C4945552015
:1000F0004448543131004E4F20445331384232305D
:1001000000002E004453313842323000524F4D3AF5
:1001100000004869676800004C6F77004E6A4E50D7
:1001200007080EE34DBE02D08D9401D08D849694C5
:1001300096908D9096908D80D8904D364E2AEFD720
:1001400012003AC03BF039C03CF03BC04DF0E6DF56
:100150003CC04DF0E3DF12003A6A396AF2DF3A6AD6
:10016000396AEFDF95968C8695968C9695988C8853
:1001700095988C98959A8C8A959A8C9A959E8C8E47
:10018000959E8C9E95948C8495948C943A6839684D
:10019000D8DF3A683968D5DF959C8C8C959C8C9C0F
:1001A000DEEF00F0FF0E926E3C0E936EF10E946E39
:1001B000000E966E956E956A8C6ACED7F19E056A92
:1001C000046AC050C00B0209C06EC08EC280C1500C
:1001D000C00B0C09C16E95908C9001EF06F025C004
:1001E0004DF09CDF26C04DF099DF27C04DF096DF23
:1001F00028C04DF093DF95948C8495948C9408EFEF
:1002000001F04B50276E271E4CC028F0281EE7D760
:100210001200298029C04BF04AC04CF0F2DF200EBA
:10022000006E002EFED700D00000299029C04BF0B0
:100230004AC04CF0E6DF1200299449C04AF0E9DFD9
:100240001200EA6A390EE96EEF500DE0060E016EFB
:10025000006A002EFED7012EFBD77B0E006E002E0B
:10026000FED7EF2EF3D712002990299229842996E0
:10027000380E496EE1DF420E006E002EFED7000000
:100280000C0E496ED9DF420E006E002EFED7000024
:10029000010E496ED1DF020E396ED3DF060E496EB4
:1002A000CBDF420E006E002EFED7000003EF06F0FB
:1002B000298448C04AF0ADDF1200400E496EBCDF11
:1002C000396A39503F080DE3036A3950F2CF3AF0EA
:1002D000F29ED8DE3ABEF28E3A6E486EE9DF392AD7
:1002E000F0D705EF06F0036A4650F2CF48F0F29ED1
:1002F00099DE48BEF28E4724486E496E9DDF12009B
:100300000900F5520CE0F6CF46F0F7CF47F0F5CFF5
:1003100048F0CEDF46C0F6FF47C0F7FFF1D7120026
:10032000030E485E09E3EA6A480EE96EEF5004E006
:1003300001D000D0EF2EFDD71200929A929A899A9E
:10034000020E476EF90E486EEBDF472EFBD7928AFE
:10035000070E006E002EFED700D0000080BA03D03A
:10036000000E016E10D06B0E006E002EFED700D076
:100370000000469080AA4680F00E486ED1DF000E45
:1003800046B0010E016E1200929A929A899A100E4E
:10039000006E002EFED7000049520EE0929A929A0B
:1003A000898A100E006E002EFED7000080BA03D09E
:1003B000000E016E1FD00DD0929A929A899A100E5B
:1003C000006E002EFED7000080AA03D0000E016E42
:1003D00011D0520E006E002EFED700D00000929A6F
:1003E000929A898A520E006E002EFED700D000002D
:1003F000010E016E09EF02F0010E476E475008082A
:100400000FE3D8904632000ED8B0010E486E496E08
:10041000BBD7015203E1000E016E04D0472AEED78C
:10042000010E016E120089DFCC0E466EE5DF4E0E26
:10043000466EE2DF466AE0DF466ADEDF7F0E466E2A
:10044000DBDF7BDFCC0E466ED7DF440E466ED4DF9B
:100450001200929A929A899A160E006E002EFED77A
:1004600000D00000928A070E006E002EFED700D04A
:1004700000004A9080BA4A80A60E006E002EFED779
:100480000000000E4AB0010E016E4DEF02F0010EA9
:10049000486E4850080809E3DCD7015202E1D890C1
:1004A00001D0D8804932482AF4D749C001F012005F
:1004B000466A476A18DFF60EF66E000EF76E20DF0A
:1004C00012003BDF015255E0330E466E95DF456A60
:1004D00045BE03D04550070813E3036A45503B0F60
:1004E000016E000E032201C046F003C047F0CFDFCB
:1004F00047C0EAFF46C0E9FF01C0EFFF452AE8D741
:1005000039C046F03AC047F0EEDE070E456E455062
:10051000800A7F082DE2036A45503B0FE96E000E0A
:100520000320EA6EEF38436E0F0E4316435009085E
:1005300003E2370E432602D0300E4326036A4550AD
:100540003B0FE96E000E0320EA6EEF500F0B446E76
:100550004450090803E2370E442602D0300E4426E8
:1005600043C048F0A5DE44C048F0A2DE4506CFD720
:1005700001D09EDF20EF06F04050016A3F5C03E2AD
:100580003FC000F00CD0006A080E416E3F360036C6
:100590004050005CD8B0006E0136412EF7D71200F3
:1005A000030E466E0C0E476E9EDE37C03FF00A0EFD
:1005B000406EE2DF01C03FF00A0E406EDDDF00500A
:1005C000300F396E486E74DE37C03FF00A0E406E51
:1005D000D3DF0050300F396E486E6ADE1200030E12
:1005E000466E110E476E7FDE38C03FF00A0E406E39
:1005F000C3DF01C03FF00A0E406EBEDF0050300F77
:10060000396E486E55DE38C03FF00A0E406EB4DFDA
:100610000050300F396E486E4BDE1200CC0E466E25
:10062000EBDEBE0E466EE8DE32DF01C039F02FDFB2
:1006300001C03AF03AC03CF039C03BF07EDECC0E4F
:10064000466EDADE440E466ED7DE3BC001F03CC09B
:1006500002F00DEF05F0016A026A006A036A485071
:1006600002E1475018E0100E496ED89045364636E4
:10067000003603364850035C02E14750005C07E354
:100680004750005ED8A003064850035ED88001366C
:100690000236492EEAD71200006A016A4550D89006
:1006A00046B000260032013246B200260032013246
:1006B00046B400260032013246B60026003201322E
:1006C00046B800260032013246BA00260032013216
:1006D00046BC00260032013246BE002600320132FE
:1006E0008AEF03F042C046F043C047F0FCDD446AA5
:1006F0004450050824E34450030807E1010E422456
:10070000456E466E43C047F0EEDD41C045F0060E33
:10071000466EC2D70150466A456E036A445045246E
:10072000016E465003220150F2CF45F0F29E84DC68
:1007300045BEF28E456E486EBBDD442AD9D7120005
:1007400040C046F041C047F0CEDD426A4250050845
:100750000FE34250030807E1010E4024436E466E4A
:1007600041C047F0C0DD200E486EA2DD422AEED720
:10077000F8EF03F03BC046F03CC047F0B4DD3AC0B0
:1007800046F039C045F0486A0A0E476E64DF02C081
:1007900041F001C040F002C046F001C045F0486A97
:1007A0000A0E476E58DF00C03EF03AC046F039C02E
:1007B00045F0486A0A0E476E4EDF00C03FF03EC06B
:1007C00041F03BC042F03CC043F08CDF030E3C24C0
:1007D000406E3FC041F03BC042F0436E83DF3E526B
:1007E00007E13D5205E03BC040F03CC041F0A8D7D6
:1007F0006CEF04F039503B02F3CF01F0F4CF00F07E
:100800003C02F35000263A503B02F3500020026EA7
:1008100084EF04F03DC046F03EC047F064DD3CC0CC
:1008200046F03BC045F0486A640E476E14DF02C0D4
:1008300044F001C043F002C046F001C045F0486AF0
:100840000A0E476E08DF300E0024406E3CC046F0B2
:100850003BC045F0486A0A0E476EFDDE02C044F018
:1008600001C043F002C046F001C045F0486A0A0EDC
:10087000476EF1DE300E0024416E3CC046F03BC0B6
:1008800045F0486A0A0E476EE6DE300E0024426EDE
:100890003F520AE04050300807E1200E406E4150C0
:1008A000300802E1200E416E40C048F001DD41C039
:1008B00048F0FEDC42C048F0FBDC9EEF04F02F5015
:1008C000305C0FE02FC030F03A6A2FC039F0020ED2
:1008D0003B6E3C6A3D6A4ED7020EF66E010EF76E15
:1008E0000FDD3350355C03E13450365C27E034C013
:1008F00036F033C035F034C03AF033C039F0020E70
:100900003C6E710E3B6E76D702C03AF001C039F0F2
:1009100002C046F001C045F0486A0A0E476E9BDEF1
:1009200002C03AF001C039F002C03CF001C03BF017
:10093000030E3D6E070E3E6E3F6A6CD722EF05F048
:10094000036A3A50070FE96E000E0320EA6E39C0C1
:100950003FF00A0E406E10DE036A0050F2CF3EF008
:10096000F29E02EC00F03EBEF28EEF6E010E3A5C9B
:10097000036A070FE96E000E0320EA6E39C03FF0EC
:100980000A0E406EF9DD01C03FF00A0E406EF4DD44
:10099000036A0050F2CF3EF0F29E02EC00F03EBE41
:1009A000F28EEF6E3B2C14D0010E3A5C036A070FF7
:1009B000E96E000E0320EA6EEF50C00809E1010E57
:1009C0003A5C036A070FE96E000E0320EA6EEF68D7
:1009D00006EF05F00AC04DF08EEC00F009C04DF0B6
:1009E0008EEC00F008C04DF08EEC00F007C04DF02A
:1009F0008EEC00F0959C8C9C959C8C8C07EF05F000
:100A00002FC039F0030E3A6E3B6A9AD7E3D723EF33
:100A100005F093DC015218E001D602C032F001C0AB
:100A200031F03230036E3130026E03320232033263
:100A300002320332023202C02FF031500F0B336EFC
:100A4000346A3DD7DDD701D033DD42EF06F004C074
:100A50003AF005C03BF03BC04DF08EEC00F03AC0E0
:100A60004DF08EEC00F095968C8695968C96120043
:100A70000580EDDF4FEF05F00594E9DF50EF05F05D
:100A80000590E5DF12000584E2DF5FEF05F03950E5
:100A9000220807E22EB005D02E802EB2E9D7ECD77F
:100AA0000ED03950210805E32EA003D02E90E8DFA8
:100AB00006D039501F0803E32EB001D0E4D745EF2C
:100AC00006F0938A81BA16D0062A020E3B6EF90E02
:100AD000486E26DC3B2EFBD73A5208E13950065CC3
:100AE00005E3066A010E016E07D003D0000E016E09
:100AF00003D002D0000E016E82EF05F03A6A140EA8
:100B0000396EDFD7015208E03750260802E3372A52
:100B100002D0220E376E44DD4DEF06F0938881B887
:100B200017D0062A020E3B6EF90E486E90EC01F0CB
:100B30003B2EFAD73A5208E13950065C05E3066AC3
:100B4000010E016E07D003D0000E016E03D002D05B
:100B5000000E016EB0EF05F03A6A140E396EDED762
:100B6000015208E038501B0802E2380602D0200E7D
:100B7000386E35DD4EEF06F0F86AD09E066A2968B9
:100B80002E902E92306A366A320E356E220E376EF5
:100B9000200E386EC150C00B0F09C16E070EB46E27
:100BA0000FD00C4007FF168030331503160221903A
:100BB00091303010082002209096000000000000C4
:100BC000000EF86E0B0EF76EA20EF66E0900F550D1
:100BD000006E000A13E00900F550016EE8BE05D072
:100BE0000F0BEA6E0900F5CFE9FF01BC090001AC6B
:100BF0000900F5CFEEFF004EE9D7F9D7F86AD2EF3A
:100C000000F034EF01F05DEF01F0466A476A73ECE3
:100C100001F0040EF66E010EF76E80EC01F003DCBD
:100C2000010E466E476A73EC01F00C0EF66E010E73
:100C3000F76E80EC01F0010E396E040E3A6E41D46D
:100C4000020E466E0C0E476E73EC01F0120EF66E3D
:100C5000010EF76E80EC01F013EC02F0020E466E0E
:100C6000110E476E73EC01F0180EF66E010EF76E62
:100C700080EC01F0220E376E200E386E91DCAFDC76
:100C80002E82C7D62FC039F002D7C80E396E21EC9C
:100C900001F0938481A4F4DE31D75ED7F2D703004C
:020000040030CA
:0E00000007CC3E1E0087A1000FC00FE00F408E
:00000001FF
;PIC18F4550
;CRC=1A3A  CREATED="02-Dec-21 21:14"
