:100000007BEF04F0F76A140FF66E000EF72209007A
:10001000F5501200C0F9A4B0999282F880908883BC
:10002000C6A1868EF76A340FF66E000EF72209001D
:10003000F55012007FBFDFEFF7FBFDFEFF00F76A10
:100040004E0FF66E000EF7220900F550120080C028
:1000500094D4F76A620FF66E000EF7220900F5508D
:100060001200000102040305010220030703060633
:100070000204030306060203030507030720200703
:100080000706060303050006060403050101072011
:100090002007000602040305000602030305F76AB1
:1000A000AE0FF66E000EF7220900F5501200070F92
:1000B0001F1F1F1F1F1F1F1F1F00000000001C1EEF
:1000C0001F1F1F1F1F1F00000000001F1F1F1F1FDB
:1000D0001F1F1F1F0F071F1F1F1F1F1F1E1C1F1F5C
:1000E0001F0000001F1F1F1F1F1F1F1F1F1F2E008D
:1000F0004E4F2044485431310000444F4320534177
:1001000049204455204C494555204448543131003C
:100110004E4F20445331384232300000434C4F435D
:100120004B20445331333037200053756E6461796E
:100130003A202020202000004D6F6E6461793A2023
:10014000202020200000547565736461793A2020D6
:10015000202000005765646E65736461793A202041
:10016000000054687572736461793A2020200000A1
:100170004672696461793A20202020200000536192
:100180007475726461793A20202000002D002D00E2
:100190003F6A3F5007080EE33EBE02D08D9401D067
:1001A0008D84969496908D9096908D80D8903E36C2
:1001B0003F2AEFD7120032C033F031C034F033C0E1
:1001C0003EF0E6DF34C03EF0E3DF1200326A316A0F
:1001D000F2DF326A316AEFDF95968C8695968C96BF
:1001E00095988C8895988C98959A8C8A959A8C9AE3
:1001F000959E8C8E959E8C9E95948C8495948C94D3
:1002000032683168D8DF32683168D5DF959C8C8CD4
:10021000959C8C9C18EF01F0FF0E926E3C0E936E35
:10022000F10E946E000E966E956E956A8C6ACED71E
:10023000F19E056A046AC050C00B0209C06EC08EF0
:10024000C280C150C00B0C09C16E95908C90B7EF65
:1002500004F0080E016E00008A929392000034367A
:100260008A90D8B09380D8A09390938281A2FED731
:10027000012EF1D700008A92939200009380000033
:100280000000938281A2FED7016A000081B0018044
:100290008A9293928A9093901200080E366E00C054
:1002A00037F093800000938281A2FED781B0D8807E
:1002B00081A0D8900136000093928A92362EF1D711
:1002C000938000008A903750D8A4939000009382C6
:1002D00081A2FED700008A92939200008A909390A8
:1002E00012009380050E006E002EFED79382060E3C
:1002F000006E002EFED78A909390050E006E002EA1
:10030000FED78A929392D00E346EA3DF346AA1DFB7
:100310009380050E006E002EFED79382060E006EAF
:10032000002EFED781A2FED78A909390050E006E14
:10033000002EFED78A929392D10E346E8ADF326AF3
:100340003150325C0EE2036A32501C0FE96E000E2F
:100350000320EA6E010E006EA0DF01C0EFFF322A1B
:10036000EFD7006A9ADF01C032F0939000009382C9
:1003700081A2FED7050E006E002EFED700D0000031
:100380009380050E006E002EFED712009380050E9E
:10039000006E002EFED79382060E006E002EFED752
:1003A0008A909390050E006E002EFED78A9293924B
:1003B000D00E346E4EDF346A4CDF326A3250080899
:1003C0001DE331520DE0036A3250130FE96E000E47
:1003D0000320EA6EEFCF33F033C034F03ADF0CD0B5
:1003E000036A32501C0FE96E000E0320EA6EEFCF55
:1003F00033F033C034F02DDF322AE0D79390000081
:10040000938281A2FED7050E006E002EFED700D08B
:1004100000009380050E006E002EFED719EF02F04B
:10042000090E316E5EDF24501B5C03E0010E316E5D
:10043000ADD7B8EF04F025C03EF0AADE26C03EF0EE
:10044000A7DE27C03EF0A4DE28C03EF0A1DE9594D2
:100450008C8495948C9434EF02F03C50276E271EC8
:100460003DC028F0281EE7D71200298029C03CF0A3
:100470003BC03DF0F2DF200E006E002EFED700D014
:100480000000299029C03CF03BC03DF0E6DF12009F
:1004900029943AC03BF0E9DF1200EA6A320EE96EB5
:1004A000EF500DE0060E016E006A002EFED7012E01
:1004B000FBD77B0E006E002EFED7EF2EF3D7120077
:1004C0002990299229842996380E3A6EE1DF420E4E
:1004D000006E002EFED700000C0E3A6ED9DF420EE1
:1004E000006E002EFED70000010E3A6ED1DF020E24
:1004F000326ED3DF060E3A6ECBDF420E006E002E58
:10050000FED70000B9EF04F0298437C03BF0ADDF1F
:100510001200400E3A6EBCDF316A31503F080DE3E5
:10052000036A3150F2CF32F0F29EB9DD32BEF28E64
:10053000326E376EE9DF312AF0D7BAEF04F0036A82
:100540003750F2CF39F0F29E7ADD39BEF28E382480
:10055000396E3A6E9DDF12000900F5520CE0F6CFBD
:1005600031F0F7CF32F0F5CF37F0CEDF31C0F6FF04
:1005700032C0F7FFF1D71200376A386AE0DF1C0E8D
:10058000F66E010EF76EE8DFBEEF04F0030E376E75
:10059000386AD5DF1F50010A0DE0030A11E0010A95
:1005A00015E0070A19E0010A1DE0030A21E0010A2B
:1005B00025E02AD02A0EF66E010EF76ECDDF24D08C
:1005C000380EF66E010EF76EC7DF1ED0460EF66EC1
:1005D000010EF76EC1DF18D0540EF66E010EF76EE5
:1005E000BBDF12D0620EF66E010EF76EB5DF0CD0D7
:1005F000700EF66E010EF76EAFDF06D07E0EF66E51
:10060000010EF76EA9DF00D0BFEF04F0006A016AA7
:100610003650D89037B000260032013237B200266B
:100620000032013237B400260032013237B60026DC
:100630000032013237B800260032013237BA0026C4
:100640000032013237BC00260032013237BE0026AC
:100650000032013244EF03F033C037F034C038F0D9
:100660006EDF356A3550050824E33550030807E18D
:10067000010E3324366E376E34C038F060DF32C07E
:1006800036F0060E376EC2D70150376A366E036AEF
:1006900035503624016E375003220150F2CF36F028
:1006A000F29ED7DC36BEF28E366E376E2DDF352ADF
:1006B000D9D712001C38316E0F0E311631C032F00E
:1006C000010E336E0E0E346EC7DF1C500F0B316EF1
:1006D000326E010E336E110E346EBEDF12001D3805
:1006E000316E0F0E311631C032F0010E336E070E2F
:1006F000346EB2DF1D500F0B316E326E010E336E51
:100700000A0E346EA9DF12001E38316E0F0E31163C
:1007100031C032F0010E336E346A9EDF1E500F0B73
:10072000316E326E010E336E030E346E95DF1200A1
:1007300032C037F033C038F002DF3138346E0F0E7C
:10074000341631500F0B356E3450090806E2370E5F
:100750003424366E376ED8DE05D0300E3424366E33
:10076000376ED2DE3550090806E2370E3524366E74
:10077000376ECADE05D0300E3524366E376EC4DED5
:10078000120020C031F0030E326E0C0E336ED0DF3B
:100790008C0EF66E010EF76EDFDE21C031F0030E17
:1007A000326E0F0E336EC4DF8E0EF66E010EF76ED4
:1007B000D3DE22C031F0030E326E120E336EB8DF7C
:1007C0001200036A3350F2CF35F0F29E2BDC35BEB7
:1007D000F28E016E356E351E35C03EF0D9DC34C068
:1007E00035F0351E35C03EF0D3DC959A8C8A959A4B
:1007F0008C9A1200080E336E3468E3DF17EF04F0B2
:10080000316A316A3150070814E3036A31500B0F23
:10081000E96E000E0320EA6EEFCF32F031C033F004
:1008200032C034F0CEDF010E326E37DEE3D7312A2C
:10083000E9D7C8EF04F0036A32500B0FE96E000EDF
:100840000320EA6E31500F0B036AF2CF36F0F29EAE
:1008500002EC00F036BEF28EEF6E010E3224036A17
:100860000B0FE96E000E0320EA6E3138006E0F0E9A
:1008700000160050036AF2CF36F0F29E02EC00F050
:1008800036BEF28EEF6E332C14D0010E3224036A82
:100890000B0FE96E000E0320EA6EEF50C00809E16D
:1008A000010E3224036A0B0FE96E000E0320EA6E7C
:1008B000EF6812001CC031F0326A336ABCDF1DC021
:1008C00031F0030E326E336AB6DF1EC031F0060E11
:1008D000326E010E336EAFDFD3EF04F0EBDE1C524D
:1008E00008E1FDDE1D5205E10FDF1E5202E149DF86
:1008F00048DFD4EF04F0F86AD09E066A29682E908B
:100900002E92C150C00B0F09C16E070EB46E0FD0EE
:100910000C4007FF168030331503160221909130EA
:100920003010082002209096000000000000000E09
:10093000F86E090EF76E100EF66E0900F550006E97
:10094000000A13E00900F550016EE8BE05D00F0B58
:10095000EA6E0900F5CFE9FF01BC090001AC09000E
:10096000F5CFEEFF004EE9D7F9D7F86A55D458D540
:10097000A7D5CFD5376A386AE2DDFED507D69ADE2D
:10098000AEDEC2DEFEDE306A3050040803E338D744
:10099000302AFAD7080E316EA4DC1C502F5C04E01C
:0C09A0001CC02FF087D79AD7EED70300B9
:020000040030CA
:0E00000007CC3E1E0087A1000FC00FE00F408E
:00000001FF
;PIC18F4550
;CRC=43AC  CREATED="29-Nov-21 21:33"
