:1000000064EF07F0F76A140FF66E000EF72209008E
:10001000F5501200C0F9A4B0999282F880908883BC
:10002000C6A1868EF76A340FF66E000EF72209001D
:10003000F550120080C094D4F76A480FF66E000E97
:10004000F7220900F5501200000102040305010225
:100050002003070306060204030306060203030542
:10006000070307202007070606030305000606040A
:10007000030501010720200700060204030500060E
:1000800002030305F76A940FF66E000EF7220900CB
:10009000F5501200070F1F1F1F1F1F1F1F1F1F00DC
:1000A000000000001C1E1F1F1F1F1F1F000000005C
:1000B000001F1F1F1F1F1F1F1F1F0F071F1F1F1F97
:1000C0001F1F1E1C1F1F1F0000001F1F1F1F1F1FA1
:1000D0001F1F1F1F2E004E4F204448543131000077
:1000E000444F4320534149204455204C4945552015
:1000F0004448543131004E4F20445331384232305D
:1001000000004C4D333541004C4D33354200556AAB
:10011000555007080EE354BE02D08D9401D08D8453
:10012000969496908D9096908D80D8905436552ABE
:10013000EFD712003DC03EF03CC03FF03EC054F04F
:10014000E6DF3FC054F0E3DF12003D6A3C6AF2DFB5
:100150003D6A3C6AEFDF95968C8695968C969598CD
:100160008C8895988C98959A8C8A959A8C9A959E5D
:100170008C8E959E8C9E95948C8495948C943D68E1
:100180003C68D8DF3D683C68D5DF959C8C8C959C9D
:100190008C9CD7EF00F0FF0E926E3C0E936EF10E2A
:1001A000946E000E966E956E956A8C6ACED7F19E0F
:1001B000056A046AC050C00B0209C06EC08EC280BE
:1001C000C150C00B0C09C16E95908C90A7EF07F041
:1001D00025C054F09CDF26C054F099DF27C054F0AE
:1001E00096DF28C054F093DF95948C8495948C947A
:1001F00001EF01F05250276E271E53C028F0281E31
:10020000E7D71200298029C052F051C053F0F2DF25
:10021000200E006E002EFED700D00000299029C0CD
:1002200052F051C053F0E6DF1200299450C051F053
:10023000E9DF1200EA6A3C0EE96EEF500DE0060EAF
:10024000016E006A002EFED7012EFBD77B0E006EDA
:10025000002EFED7EF2EF3D7120029902992298481
:100260002996380E506EE1DF420E006E002EFED74A
:1002700000000C0E506ED9DF420E006E002EFED72D
:100280000000010E506ED1DF020E3C6ED3DF060E71
:10029000506ECBDF420E006E002EFED70000A9EF9D
:1002A00007F029844DC051F0ADDF1200400E506EB2
:1002B000BCDF3C6A3C503F080DE3036A3C50F2CF80
:1002C0003DF0F29EDFDE3DBEF28E3D6E4D6EE9DF0B
:1002D0003C2AF0D7ABEF07F0036A4D50F2CF4FF056
:1002E000F29EA0DE4FBEF28E4E244F6E506E9DDF0A
:1002F00012000900F5520CE0F6CF44F0F7CF45F0BC
:10030000F5CF4DF0CEDF44C0F6FF45C0F7FFF1D783
:1003100012008E0E006E49C001F048C002F0036A60
:10032000015209E102C001F0026A080E005E0152AA
:1003300002E1006A08D0D89001BE04D0023601362E
:100340000006F9D7019E1200800ED8B24D1A526AEB
:10035000536A49C051F04D50511A4850D8B4DCD0BE
:10036000506E006E4C50D8B4E0D0505ED8B481D0FE
:100370003DE34DC056F0568E4EC055F04FC054F080
:10038000536AD8905632553254325332502EF8D7E1
:1003900051AE03D05280DDD0529050905288EA6A1C
:1003A0004B0EE96EE9D0529851BE0AD050A013D03E
:1003B0005632553254325332002AD8B4C5D00BD0FD
:1003C00056BE0CD0D89053365436553656360006A5
:1003D000D8B4BAD0F5D7528C6BD0529C49C051F0EA
:1003E00049AE02D0568EA9D0569EA7D04CC050F030
:1003F0004CC000F04850505E49C056F0568E4AC07E
:1004000055F04BC054F0536AD8905632553254329E
:100410005332502EF8D751AE03D052829AD0529216
:100420005090528AEA6A4F0EE96EA6D0529A51BE97
:100430000AD050A013D05632553254325332002ACB
:10044000D8B482D00BD056BE0CD0D8905336543688
:10045000553656360006D8B477D0F5D7528E28D008
:10046000529E4DC051F04DAE02D0568E66D0569E73
:1004700064D04DC056F0568E4EC055F04FC054F06B
:1004800051AE04D0569E528464D05294536A509018
:10049000EA6A4B0EE96E70D051BE1CD049C051F0D3
:1004A00050A006D05632553254325332002A4CE016
:1004B00053AE0BD0542A09E1552A07E1562A05E12B
:1004C000563255325432002A3FE052BC86D752BED3
:1004D000C7D71CD0800E561A56AE04D03AD04DC0A5
:1004E00051F00AD049C051F0565206E1555204E18C
:1004F000545202E1006A21D056BE08D0D89053363B
:10050000543655365636002EF7D71ED051AE02D08F
:10051000568E13D0569E11D04CC000F04DC056F0F0
:100520004EC055F04FC054F008D048C000F049C04C
:1005300056F04AC055F04BC054F056C001F055C0BB
:1005400002F054C003F034D0006A016A026A036A00
:100550002FD0536A541E551E561E531E532A05E1B2
:10056000542A03E1552A01E1562A52B015D752B256
:1005700056D752B48AD7B3D7EF50542605E3552A3D
:1005800003E1562AD8B45080ED52EF50552603E3CC
:10059000562AD8B45080ED52EF50EFBE01D0800AF9
:1005A0005626D8B0508052B8FED652BA3FD774D72C
:1005B00012004850D8B4A5D0546E4C50D8B4A1D035
:1005C000545E05E37F0E5426D8B09BD006D0810E32
:1005D000545ED8A096D0D8B494D054C000F0016A2C
:1005E000026A036A536A49C052F0528E4AC051F0FF
:1005F0004BC050F0190E546E4F50505E0DE2010E7C
:10060000515E0AE2525E08E2535E06E2532A522A23
:10061000512A4F50502628D04E50515E12E2010E02
:10062000525E0FE2535E0DE2532A522A4E5051267B
:100630004F50502619E3512A17E1522A15E1532A47
:1006400013D04D508009525E0EE2010E535E0BE254
:10065000532A4D50800952264E505126E9E3522A22
:10066000E7E1532AE5D70380542E01D00BD0D89070
:100670005036513652365336D8900336023601364C
:100680005536BAD755A006D0D8900132023203327F
:10069000553202D0000635E055BE1ED0D8905036F7
:1006A0005136523653364F50505E07E2010E515EBE
:1006B00004E2525E02E2535E1AE34E50515E05E2DE
:1006C000010E525E02E2535E12E34D508009525E0B
:1006D00003E2010E535E0BE3032A09E1022A07E15C
:1006E000012A05E1002A0DE001320232033249C03D
:1006F00054F04D50541A54AE02D0018E06D0019ED3
:1007000004D0006A016A026A036A12004234006E71
:100710000036FC0E0016C250C30B0010C26E200E35
:10072000006E002EFED700D00000466A456A446A7B
:10073000436A476A4150475C26E2C282C2B2FED792
:10074000C4CF03F0C3CF48F0C4CF49F0E2DDD89264
:1007500046C04BF045C04AF044C049F043C048F0A1
:1007600003C04FF002C04EF001C04DF000C04CF08D
:10077000EBDD03C046F002C045F001C044F000C00C
:1007800043F0472AD7D7496A41C048F0C2DD46C086
:100790004BF045C04AF044C049F043C048F003C0A4
:1007A0004FF002C04EF001C04DF000C04CF001DF30
:1007B00003C046F002C045F001C044F000C043F061
:1007C00043C000F044C001F045C002F046C003F051
:1007D00012008E0E006E4550005E46C002F047C00B
:1007E00001F0028E005209E0D890025202E101525B
:1007F00004E002320132002EF7D746AE05D0011ECA
:10080000021E012AD8B4022A12004550D8B471D071
:10081000006E4950D8B46DD0002604E3810E002646
:1008200068E204D07F0E005E64E363E046C04DF0F2
:100830004A504D1A468E4A8E48504C02F4CF4FF023
:1008400047504B02F4CF03F0F3CF4EF04C02F3507D
:100850004F26F4504E22000E032248504B02F35014
:100860004F26F4504E22000E026A03220222465006
:100870004C02F3504E26F4500322000E0222465042
:100880004B02F3500326F4500222000E016A0122AB
:1008900048504A02F3504E26F4500322000E022222
:1008A000012247504A02F3500326F4500222000E60
:1008B000012246504A02F3500226F4500122002A37
:1008C00001BE05D04E360336023601360006000E54
:1008D0004EAE0AD0032A02220122015005E1025045
:1008E00003E1035001E1002A4DBE018E4DAE019E91
:1008F00004D0006A016A026A036AC8EF04F044C0C7
:100900004BF043C04AF042C049F041C048F04F6A42
:100910004E6A4D6A7F0E4C6E4CDE03C048F002C03A
:1009200047F001C046F000C045F053DF02C02BF095
:1009300001C02AF02BC049F02AC048F0EADCD88276
:1009400044C04BF043C04AF042C049F041C048F0B7
:1009500003C04FF002C04EF001C04DF000C04CF09B
:10096000F3DC03C044F002C043F001C042F000C019
:1009700041F044C048F043C047F042C046F041C097
:1009800045F04C6A4B6A480E4A6E850E496E3DD75B
:1009900003C044F002C043F001C042F000C041F087
:1009A00044C04BF043C04AF042C049F041C048F057
:1009B0004F6A4E6A4D6A7F0E4C6EFBDD03C048F0F5
:1009C00002C047F001C046F000C045F002DF02C09F
:1009D0002DF001C02CF012003CC041F0426A96DEBE
:1009E00003C040F002C03FF001C03EF000C03DF047
:1009F00040C04BF03FC04AF03EC049F03DC048F017
:100A0000AA0E4F6EF10E4E6E020E4D6E800E4C6EA3
:100A1000D0DD03C040F002C03FF001C03EF000C096
:100A20003DF040C044F03FC043F03EC042F03DC006
:100A300041F065DF2BC031F02AC030F02DC033F01B
:100A40002CC032F0C3EF07F0016A026A006A036A41
:100A50004C5002E14B5018E0100E4D6ED8904936C4
:100A60004A36003603364C50035C02E14B50005CC2
:100A700007E34B50005ED8A003064C50035ED880BD
:100A8000013602364D2EEAD71200006A016A4C5038
:100A9000D8904DB00026003201324DB2002600320F
:100AA00001324DB40026003201324DB6002600322C
:100AB00001324DB80026003201324DBA0026003214
:100AC00001324DBC0026003201324DBE00260032FC
:100AD000013285EF05F049C04DF04AC04EF06CEC94
:100AE00001F04B6A4B50050827E34B50030808E11F
:100AF000010E49244C6E4D6E4AC04EF06CEC01F074
:100B000048C04CF0060E4D6EC0D701504D6A4C6E79
:100B1000036A4B504C24016E4D5003220150F2CF1A
:100B20004CF0F29E1CEC00F04CBEF28E4C6E4D6E02
:100B300051EC01F04B2AD6D7120047C04DF048C007
:100B40004EF06CEC01F0496A4950050811E3495038
:100B5000030808E1010E47244A6E4D6E48C04EF06E
:100B60006CEC01F0200E4D6E51EC01F0492AECD7EF
:100B7000F9EF05F042C04DF043C04EF06CEC01F0CF
:100B800041C04AF040C049F04C6A0A0E4B6E5CDF2F
:100B900002C048F001C047F002C04AF001C049F06D
:100BA0004C6A0A0E4B6E50DF00C045F041C04AF05F
:100BB00040C049F04C6A0A0E4B6E46DF00C046F05A
:100BC00045C048F042C049F043C04AF084DF030EFC
:100BD0004324476E46C048F042C049F04A6E7BDF6E
:100BE000455207E1445205E042C047F043C048F097
:100BF000A4D712004650016A455C03E245C000F0EC
:100C00000CD0006A080E476E453600364650005C30
:100C1000D8B0006E0136472EF7D7120042C04DF013
:100C200043C04EF06CEC01F0D40EF66E000EF76E81
:100C300079EC01F041C045F00A0E466EDBDF01C0E1
:100C400045F00A0E466ED6DF300E0024446E4D6E1F
:100C500051EC01F041C045F00A0E466ECBDF300E7C
:100C60000024446E4D6E51EC01F012003050345CA3
:100C700003E13150355C10E031C035F030C034F064
:100C80003E520AE031C041F030C040F03CC042F07A
:100C90003DC043F0446A6EDF3F5209E0060E3D243A
:100CA000406E32C041F03CC042F0436EB7DFC9EF46
:100CB00007F0036A3F50070FE96E000E0320EA6E4B
:100CC0003EC045F00A0E466E95DF036A0050F2CF33
:100CD00043F0F29E02EC00F043BEF28EEF6E010E86
:100CE0003F5C036A070FE96E000E0320EA6E3EC008
:100CF00045F00A0E466E7EDF01C045F00A0E466ED4
:100D000079DF036A0050F2CF43F0F29E02EC00F06C
:100D100043BEF28EEF6E402C14D0010E3F5C036A8E
:100D2000070FE96E000E0320EA6EEF50C00809E1DC
:100D3000010E3F5C036A070FE96E000E0320EA6EA6
:100D4000EF6812000AC054F087EC00F009C054F0BC
:100D500087EC00F008C054F087EC00F007C054F0B6
:100D600087EC00F0959C8C9C959C8C8C12003D52DD
:100D700007E030C03EF03CC03FF0406A9ADFE2DF5F
:100D8000CDEF07F03CC041F0010E426EBFDC03C066
:100D900040F002C03FF001C03EF000C03DF040C056
:100DA0004BF03FC04AF03EC049F03DC048F0AA0EAB
:100DB0004F6EF10E4E6E020E4D6E800E4C6ED9ECE3
:100DC00002F003C040F002C03FF001C03EF000C09E
:100DD0003DF040C044F03FC043F03EC042F03DC053
:100DE00041F08DDD2BC037F02AC036F02DC039F030
:100DF0002CC038F0D0EF07F036503A5C03E13750A2
:100E00003B5C10E037C03BF036C03AF03E520AE09F
:100E100037C041F036C040F03CC042F03DC043F026
:100E2000446AA8DE3F5209E0060E3D24406E38C0F9
:100E300041F03CC042F0436EF1DED8EF07F03D5286
:100E400007E036C03EF03CC03FF0406A32DF7ADF58
:100E5000DDEF07F004C03FF005C040F040C054F0A3
:100E600087EC00F03FC054F087EC00F095968C863C
:100E700095968C9612000580EDDF52EF07F00594F1
:100E8000E9DF53EF07F00590E5DF12000584E2DFAC
:100E900062EF07F03E50220807E22EB005D02E8008
:100EA0002EB2E9D7ECD70ED03E50210805E32EA094
:100EB00003D02E90E8DF06D03E501F0803E32EB08B
:100EC00001D0E4D7ECEF07F0F86AD09E066A2968F3
:100ED0002E902E92320E2F6E356A346A3B6A3A6A31
:100EE000C150C00B0F09C16E070EB46E0FD00C407D
:100EF00007FF168030331503160221909130301011
:100F0000082002209096000000000000000EF86EFD
:100F10000E0EF76EEE0EF66E0900F550006E000A2A
:100F200013E00900F550016EE8BE05D00F0BEA6E24
:100F30000900F5CFE9FF01BC090001AC0900F5CFBC
:100F4000EEFF004EE9D7F9D7F86ACBEF00F02DEFAE
:100F500001F056EF01F04D6A4E6A6CEC01F0020EA2
:100F6000F66E010EF76E79EC01F04D6A0A0E4E6EC8
:100F70006CEC01F0080EF66E010EF76E79EC01F0E4
:100F80002FC03CF029D5010E3C6E3D6A3E6E3F6E8F
:100F90006DD6010E3C6E3D6EEAD62FC03CF0F2D607
:100FA000010E3C6E0A0E3D6E010E3E6E3F6E24D762
:100FB000030E3C6E010E3D6E42D737C04AF036C07C
:100FC00049F04C6A640E4B6E3FDD00C03CF003C03C
:100FD0003DF000C03EF05ED7C80E3C6E1AEC01F04A
:0A0FE000938481A450DFCCD70300F6
:020000040030CA
:0E00000007CC3E1E0087A1000FC00FE00F408E
:00000001FF
;PIC18F4550
;CRC=E08A  CREATED="30-Nov-21 11:29"
