:100000000CEF01F0F76A140FF66E000EF7220900EC
:10001000F55012007FBFDFEFF7FBFDFEFF002E0063
:100020004E4F2044485431310000444F4320534147
:1000300049204455204C494555204448543131000D
:100040004E4F20445331384232300000366A365029
:1000500007080EE335BE02D08D9401D08D849694AE
:1000600096908D9096908D80D8903536362AEFD721
:10007000120031C032F030C033F032C035F0E6DF6C
:1000800033C035F0E3DF1200316A306AF2DF316AE3
:10009000306AEFDF95968C8695968C9695988C882D
:1000A00095988C98959A8C8A959A8C9A959E8C8E18
:1000B000959E8C9E95948C8495948C943168306830
:1000C000D8DF31683068D5DF959C8C8C959C8C9CF2
:1000D00076EF00F0FF0E926E3C0E936EF10E946E72
:1000E000000E966E956E956A8C6ACED7F19E056A63
:1000F000046AC050C00B0209C06EC08EC280C150DD
:10010000C00B0C09C16E95908C9048EF01F0C00EA9
:10011000126EF90E116EA40E106EB00E0F6E990EC7
:100120000E6E920E0D6E820E0C6EF80E0B6EE7EFD9
:1001300000F0036A3250F2CF34F0F29E63DF34BE37
:10014000F28E016E346E341E34C035F07FDF33C062
:1001500034F0341E34C035F079DF959A8C8A959A44
:100160008C9A1200EA6A310EE96EEF500DE0060E2D
:10017000016E006A002EFED7012EFBD77B0E006EAB
:10018000002EFED7EF2EF3D7E2EF00F0080E326E0E
:100190003368CFDFE3EF00F0306A306A3050070891
:1001A00014E3036A30500B0FE96E000E0320EA6E71
:1001B000EFCF31F030C032F031C033F0BADF010E92
:1001C000316ED0D7E3D7302AE9D71200A0D72F6AF3
:1001D0002F50310803E3E0DF2F2AFAD749EF01F06F
:1001E000800E126E900E116E880E106E830E0F6EC2
:1001F000C60E0E6EA10E0D6E860E0C6E8E0E0B6E62
:1002000003EF01F0EDD72F6A2F50310803E3C4DF6D
:100210002F2AFAD74AEF01F0F86AD09E066A2968B9
:100220002E902E92C150C00B0F09C16E070EB46EF6
:100230000FD00C4007FF16803033150316022190B3
:10024000913030100820022090960000000000003D
:10025000000EF86E020EF76E320EF66E0900F550C3
:10026000006E000A13E00900F550016EE8BE05D0EB
:100270000F0BEA6E0900F5CFE9FF01BC090001ACE4
:100280000900F5CFEEFF004EE9D7F9D7F86A22D77B
:080290009DD7B8D7FDD703008C
:020000040030CA
:0E00000007CC3E1E0087A1000FC00FE00F408E
:00000001FF
;PIC18F4550
;CRC=780E  CREATED="27-Nov-21 19:37"
