:10000000FCEF00F0F76A140FF66E000EF7220900FD
:10001000F55012007FBFDFEFF7FBFDFEFF002E0063
:100020004E4F2044485431310000444F4320534147
:1000300049204455204C494555204448543131000D
:100040004E4F204453313842323000005A6A5A50E1
:1000500007080EE359BE02D08D9401D08D8496948A
:1000600096908D9096908D80D89059365A2AEFD7D9
:10007000120055C056F054C057F056C059F0E6DF94
:1000800057C059F0E3DF1200556A546AF2DF556A2F
:10009000546AEFDF95968C8695968C9695988C8809
:1000A00095988C98959A8C8A959A8C9A959E8C8E18
:1000B000959E8C9E95948C8495948C9455685468E8
:1000C000D8DF55685468D5DF959C8C8C959C8C9CAA
:1000D00076EF00F0FF0E926E3C0E936EF10E946E72
:1000E000000E966E956E956A8C6ACED7F19E056A63
:1000F000046AC050C00B0209C06EC08EC280C150DD
:10010000C00B0C09C16E95908C9046EF01F054C065
:1001100030F0070E316E080E5424305C1DE2036A85
:1001200031500B0F016E000E032201C055F003C0C9
:1001300056F0036A3050330FE96E000E0320EA6E6A
:10014000EFCF57F056C0EAFF01C0E9FF57C0EFFFFD
:100150003050302A3106DFD74DEF01F0036A565098
:10016000F2CF58F0F29E4EDF58BEF28E016E586EFE
:10017000581E58C059F06ADF57C058F0581E58C072
:1001800059F064DF959A8C8A959A8C9A1200EA6AE3
:10019000550EE96EEF500DE0060E016E006A002E5E
:1001A000FED7012EFBD77B0E006E002EFED7EF2E62
:1001B000F3D7F7EF00F0080E566E5768CFDFF8EF71
:1001C00000F0546A546A5450070814E3036A545008
:1001D0000B0FE96E000E0320EA6EEFCF55F054C00E
:1001E00056F055C057F0BADF010E556ED0D7E3D7A1
:1001F000542AE9D752EF01F0F86AD09E066A2968BE
:100200002E902E92C150C00B0F09C16E070EB46E16
:100210001DD00C4007FF16803033150316022190C5
:100220009130301008200220909600000000084015
:1002300033FF0F80C6888E86BFC6C0C688BFC6C0C3
:10024000C788BF08C0FF028000000000000EF86EE3
:10025000020EF76E120EF66E0900F550006E000ADF
:1002600013E00900F550016EE8BE05D00F0BEA6EF1
:100270000900F5CFE9FF01BC090001AC0900F5CF89
:10028000EEFF004EE9D7F9D7F86A24D72F6A2F502E
:1002900017080CE32FC054F03AD7326A32500908DD
:1002A00003E38FD7322AFAD72F2AF1D7EFD70300EB
:020000040030CA
:0E00000007CC3E1E0087A1000FC00FE00F408E
:00000001FF
;PIC18F4550
;CRC=CC4E  CREATED="27-Nov-21 19:50"
