:100000002AEF01F0F76A140FF66E000EF7220900CE
:10001000F55012003F7FBFFF2E004E4F2044485442
:1000200031310000444F4320534149204455204C76
:10003000494555204448543131004E4F20445331F6
:10004000384232300000366A365007080EE335BEBB
:1000500002D08D9401D08D84969496908D90969038
:100060008D80D8903536362AEFD7120032C033F063
:1000700031C034F033C035F0E6DF34C035F0E3DFB3
:100080001200326A316AF2DF326A316AEFDF959626
:100090008C8695968C9695988C8895988C98959A40
:1000A0008C8A959A8C9A959E8C8E959E8C9E959412
:1000B0008C8495948C9432683168D8DF32683168CA
:1000C000D5DF959C8C8C959C8C9C73EF00F0FF0E7B
:1000D000926E3C0E936EF10E946E000E966E956EBF
:1000E000956A8C6ACED7F19E056A046AC050C00B2F
:1000F0000209C06EC08EC280C150C00B0C09C16E17
:1001000095908C9066EF01F0346834C033F0356A16
:100110003550030826E3036A3550F2CF36F0F29EDD
:1001200071DF36BEF28E936A8A6E938481B404D0F6
:10013000030E346E16D013D0938681B604D0020E0F
:10014000346E0FD00CD0938881B804D0010E346E79
:1001500008D005D0938A81BA02D0346A02D0352AF9
:10016000D7D7343C01D005D03550040DF35034249A
:10017000336E33C001F01200EA6A330EE96EEF50BD
:100180000DE0060E016E006A002EFED7012EFBD791
:100190007B0E006E002EFED7EF2EF3D71200B4DFD9
:1001A00001C031F0313C01D00FD0140E336EE4DFCA
:1001B000ABDF01C031F0050E336EDEDFA5DF01C01D
:1001C00032F03150325CF7E031C001F0FAEF00F06C
:1001D00031C035F038DF32C035F035DF33C035F0AF
:1001E00032DF34C035F02FDF95988C8895988C9845
:1001F0001200D5D701C02FF02F50070812E3010ECF
:10020000006E2F50016E04E0D8900036012EFCD70E
:1002100000503012316A326A336A30C034F0D8DFAD
:1002200017D02F500F0814E3080E2F5C016E010E3B
:10023000006E015204E0D8900036012EFCD7005029
:10024000FF0A3016316A326A336A30C034F0C0DFD8
:1002500068EF01F0F86AD09E066A29682E902E9207
:10026000C150C00B0F09C16E070EB46E0FD00C4009
:1002700007FF16803033150316022190913030109D
:10028000082002209096000000000000000EF86E8A
:10029000020EF76E6E0EF66E0900F550006E000A43
:1002A00013E00900F550016EE8BE05D00F0BEA6EB1
:1002B0000900F5CFE9FF01BC090001AC0900F5CF49
:1002C000EEFF004EE9D7F9D7F86A01D7306A91D727
:0402D000FED7030052
:020000040030CA
:0E00000007CC3E1E0087A1000FC00FE00F408E
:00000001FF
;PIC18F4550
;CRC=A0B2  CREATED="25-Nov-21 17:53"
