:10000000B4EF00F02E004E4F204448543131000030
:10001000444F4320534149204455204C49455520E5
:100020004448543131004E4F20445331384232302D
:100030000000356A355007080EE334BE02D08D94B7
:1000400001D08D84969496908D9096908D80D890C6
:100050003436352AEFD7120031C032F030C033F0D9
:1000600032C034F0E6DF33C034F0E3DF1200316A2F
:10007000306AF2DF316A306AEFDF95968C869596AA
:100080008C9695988C8895988C98959A8C8A959A48
:100090008C9A959E8C8E959E8C9E95948C8495942E
:1000A0008C9431683068D8DF31683068D5DF959C32
:1000B0008C8C959C8C9C69EF00F0FF0E926E3C0E30
:1000C000936EF10E946E000E966E956E956A8C6A24
:1000D000CED7F19E056A046AC050C00B0209C06EFB
:1000E000C08EC280C150C00B0C09C16E95908C901F
:1000F000F0EF00F030C034F09CDF31C034F099DF15
:1001000032C034F096DF33C034F093DF95988C889A
:1001100095988C981200EA6A300EE96EEF500DE067
:10012000060E016E006A002EFED7012EFBD77B0E55
:10013000006E002EFED7EF2EF3D7A5EF00F09386CA
:1001400081B610D0140E306EE6D7938681B60AD0F1
:100150002F1E306A316A326A2FC033F0CBDF9386AC
:1001600081A6FDD7FDEF00F0F86AD09E066A2968E7
:100170002E902E92C150C00B0F09C16E070EB46EA7
:100180000FD00C4007FF1680303315031602219064
:1001900091303010082002209096000000000000EE
:1001A000000EF86E010EF76E820EF66E0900F55025
:1001B000006E000A13E00900F550016EE8BE05D09C
:1001C0000F0BEA6E0900F5CFE9FF01BC090001AC95
:1001D0000900F5CFEEFF004EE9D7F9D7F86A6DD7E1
:1001E0002F6A938A81BAFDD70F0E2F6E306A316A5B
:1001F000326A2FC033F07EDFA2D7938881B8FCD754
:100200000F0E2F6E306A316A326A336A73DFE9D7B4
:020210000300E9
:020000040030CA
:0E00000007CC3E1E0087A1000FC00FE00F408E
:00000001FF
;PIC18F4550
;CRC=3FDF  CREATED="23-Nov-21 13:37"
