:10000000C2EF00F02E004E4F204448543131000022
:10001000444F4320534149204455204C49455520E5
:100020004448543131004E4F20445331384232302D
:100030000000366A365007080EE335BE02D08D94B4
:1000400001D08D84969496908D9096908D80D890C6
:100050003536362AEFD7120030C031F02FC032F0DB
:1000600031C035F0E6DF32C035F0E3DF1200306A30
:100070002F6AF2DF306A2F6AEFDF95968C869596AD
:100080008C9695988C8895988C98959A8C8A959A48
:100090008C9A959E8C8E959E8C9E95948C8495942E
:1000A0008C9430682F68D8DF30682F68D5DF959C36
:1000B0008C8C959C8C9C69EF00F0FF0E926E3C0E30
:1000C000936EF10E946E000E966E956E956A8C6A24
:1000D000CED7F19E056A046AC050C00B0209C06EFB
:1000E000C08EC280C150C00B0C09C16E95908C901F
:1000F000FEEF00F031C035F09CDF32C035F099DF03
:1001000033C035F096DF34C035F093DF95988C8896
:1001100095988C981200EA6A320EE96EEF500DE065
:10012000060E016E006A002EFED7012EFBD77B0E55
:10013000006E002EFED7EF2EF3D71200316A326A1E
:10014000336A346AD7DF30C031F0312A3106D8B48F
:1001500003D03268E0DFFAD72FC032F0DCDF316A3B
:10016000326A336A3468C6DF30C031F0312A310672
:10017000D8B403D03268CFDFFAD72FC032F0CBDF4C
:1001800003EF01F0F86AD09E066A29682E902E923D
:10019000C150C00B0F09C16E070EB46E0FD00C40DA
:1001A00007FF16803033150316022190913030106E
:1001B000082002209096000000000000000EF86E5B
:1001C000010EF76E9E0EF66E0900F550006E000AE5
:1001D00013E00900F550016EE8BE05D00F0BEA6E82
:1001E0000900F5CFE9FF01BC090001AC0900F5CF1A
:1001F000EEFF004EE9D7F9D7F86A5FD7010E306EEF
:0A020000F40E2F6E9BD7FAD703000F
:020000040030CA
:0E00000007CC3E1E0087A1000FC00FE00F408E
:00000001FF
;PIC18F4550
;CRC=7DFB  CREATED="01-Nov-21 10:12"
