:1000000014EF02F0F76A180FF66E000EF722000EDA
:10001000F86E0900F5501200C0F9A4B0999282F868
:1000200080908883C6A1868E66501AC066FF6430B1
:10003000FEE3665019C066FF6430FEE3665018C0E8
:1000400066FF6430FEE3665017C066FF6430FEE36F
:10005000959E8C8E959E8C9EB8EF00F01AC01CF079
:100060001D6A1E6A1F6A66501AC066FF6430FEE38E
:1000700019C01CF01AC01DF01E6A1F6A665019C014
:1000800066FF6430FEE318C01CF019C01DF01AC0F2
:100090001EF01F6A665018C066FF6430FEE36650AB
:1000A00017C066FF6430FEE3959A8C8A959A8C9A05
:1000B000BDEF00F0EA6A180EE96EEF500DE0060E93
:1000C000016E006A002EFED7012EFBD77B0E006E5C
:1000D000002EFED7EF2EF3D795EF00F0176A1750DA
:1000E00007082DE3010E186E1750016E04E0D8903A
:1000F0001836012EFCD7665018C066FF6430FEE348
:10010000036A1750040FE96E000E0320EA6EEFCF6A
:1001100018F0665018C066FF6430FEE395928C823A
:1001200095928C92010E186EC5D766506668643041
:10013000FEE395928C8295928C92172AD0D712006A
:10014000979E8E9EC3EF00F0979C8E9CC4EF00F0AC
:10015000FF0E926E040E956E000E966E976E986E60
:10016000F19E986A8F6A1768186819681A685CD7D0
:100170001A6A196A186A176A71D798908F80FF0EE9
:10018000946EACDFDDD7E0D732EF02F094988B8825
:1001900094968B8600D000D0000094988B9800D065
:1001A00000D0000094968B96120094968B8600D017
:1001B00000D0000094968B961200800E1F6E1F5286
:1001C0000BE01E501F1402E18B9801D08B8894988D
:1001D000ECDFD8901F32F3D7E8DF1200196A948859
:1001E000800E186E18520FE094968B8600D000D0C7
:1001F0000000948882A802D01850191294968B9609
:10020000D8901832EFD7175203E094988B9802D009
:1002100094988B88CADF94988B8819C001F01200DB
:1002200094988B9894968B8600D000D00000949878
:100230008B881200ABDFD00E1E6EBFDF1E6ABDDFE3
:10024000A5DFD10E1E6EB9DF010E176EC7DF01C02C
:100250000FF0010E176EC2DF01C010F0010E176E15
:10026000BDDF01C011F0010E176EB8DF01C012F042
:10027000010E176EB3DF01C013F0010E176EAEDF73
:1002800001C014F0176AAADF01C015F0C9DF33EF0F
:1002900002F01950070B006E1930016E0132013265
:1002A0001F0E011601501B24E96E000E1C20EA6E81
:1002B000016A012A002A01D00136002EFDD71A5208
:1002C00003E00150EF1203D0011E0150EF1612009F
:1002D0001950070B006E1930016E013201321F0EEA
:1002E000011601501A24E96E000E1B20EA6EEFCFB2
:1002F00001F0002A01D00132002EFDD71200936ACE
:100300008A6817C019F0010E1A6E0F0E1C6E920E3D
:100310001B6EBFDF17C019F00F0E1B6E800E1A6E1A
:10032000D7DF01B014D00EB212D00EB005D018C075
:100330000DF017C00CF00E800C50175C07E10D504B
:10034000185C04E10E82000E016E21D01ED017C091
:1003500019F0010E1A6E0F0E1C6E920E1B6E99DFB5
:1003600017C019F00F0E1B6E800E1A6EB1DF01A0C0
:100370000CD00EA20AD00C50175C07E10D50185C8F
:1003800004E10E900E920D680C68010E016E1200D1
:1003900017500F0B0A0802E1060E172617500F0B15
:1003A0000F0802E1060E175E17C001F01200EEDE24
:1003B000D00E1E6E02DF1E6A00DF17C01EF0FDDECB
:1003C00018C01EF0FADE19C01EF0F7DE1AC01EF0CB
:1003D000F4DE1BC01EF0F1DE1CC01EF0EEDE1DC000
:1003E0001EF0EBDE1DDF13EF02F00FC017F0D0DFC1
:1003F00001C00FF010C017F0CBDF01C010F011C02A
:1004000017F0C6DF01C011F00FC017F010C018F0D0
:1004100011C019F012C01AF013C01BF014C01CF068
:1004200015C01DF0C4D71200F86AD09E639A000E62
:10043000646E210E636E9598958A959C0D680C6884
:100440000E900E92166AC150C00B0F09C16E070EB6
:10045000B46E0468056806680768086809680A6871
:100460000B6876D6E7D67C0E186E0F0E176E47DF38
:10047000015203E1162A030E16167C0E186E0C0E9E
:10048000176E3DDF015215E1162C04D00F505808AD
:1004900001E30F2A1650020804E11050580801E346
:1004A000102A1650030804E11150220801E3112A12
:1004B0009CDF7C0E186E0D0E176E21DF015212E1CB
:1004C000162C03D00F5201E00F061650020803E16C
:1004D000105201E010061650030803E1115201E02A
:1004E000110683DF0F500F0B036AF2CF17F0F29E55
:1004F00089DD17BEF28E176E162C01D002D0000EC9
:1005000001D0010E800DF350175C046E0F38006EA1
:100510000F0E001600500F0B036AF2CF17F0F29E79
:1005200071DD17BEF28E056EBF0E066E10500F0BFA
:10053000036AF2CF17F0F29E65DD17BEF28E176EDA
:100540001650020802E0000E01D0010E800DF3509B
:10055000175C076E1038006E0F0E001600500F0B60
:10056000036AF2CF17F0F29E4DDD17BEF28E086ED1
:10057000BF0E096E11500F0B036AF2CF17F0F29EF7
:1005800041DD17BEF28E176E1650030802E0000E12
:1005900001D0010E800DF350175C0A6E1138006E09
:1005A0000F0E001600500F0B036AF2CF17F0F29EE9
:0E05B00029DD17BEF28E0B6E91DD54D70300CD
:020000040030CA
:0E00000000C21E1E0385B100FFC0FFE0FF40DE
:00000001FF
;PIC18F6722
;CRC=1E4F  CREATED="18-Feb-22 19:45"
